:020000040000FA
:1000000000800020A500000051150000AF00000096
:1000100000000000000000000000000000000000E0
:10002000000000000000000000000000AF00000021
:100030000000000000000000B1000000B51C00003E
:10004000F91C0000B5000000B5000000B50000007C
:10005000B5000000B5000000B50000001D10000054
:10006000B5000000B5000000911E0000D11F000087
:10007000B5000000B5000000B5000000B5000000AC
:10008000B50000001121000041230000B500000070
:100090000348854600F0BCF800480047193F0000BF
:1000A000008000200448804704480047FEE7FEE740
:1000B000FEE7FEE7FEE70000CD1C00009100000017
:1000C00030B50B46014600202022012409E00D46F0
:1000D000D5409D4205D31D469540491B2546954078
:1000E00040191546521E002DF1DC30BD70B50024BC
:1000F0002546002801DA01244042002901DA0125C1
:100100004942FFF7DDFFAC4200D04042002C00D056
:10011000494270BD03460B439B0703D009E008C961
:10012000121F08C0042AFAD203E00B780370401CA7
:10013000491C521EF9D27047D2B201E00270401C35
:10014000491EFBD270470022F6E710B513460A4657
:1001500004461946FFF7F0FF204610BD30B50446AF
:100160000020034600E05B1C934203D2E05CCD5CC0
:10017000401BF8D030BD03460A780270401C491C71
:10018000002AF9D1184670470321001D401E03784C
:1001900012021A43491EF9D510467047034603223E
:1001A0000870000A491C521EFAD518467047F0B56F
:1001B0001FB40646002082B00546402401910090FD
:1001C0001BE0019922460F46304600F043F8049A9E
:1001D000059B801A994110D310461946224600F01B
:1001E00029F8361A8F410197224601200021009FED
:1001F00000F020F838184D4100902046641E002879
:10020000DFDC019B00982946324607B0F0BD0000B4
:10021000064C0125064E05E0E36807CC2B430C3C59
:1002200098471034B442F7D3FFF736FFA07D0000A3
:10023000C07D000010B5202A04DB0146203A914021
:10024000002010BD914020239C1A0346E34019432F
:10025000904010BD10B5202A04DB0846203AD0405B
:10026000002110BD0B46D340D0402024A21A91405B
:100270000843194610BD70B58C180578401C6B07F3
:100280005B0F01D10378401C2A1106D10278401C73
:1002900003E006780E70401C491C5B1EF9D12B0749
:1002A00005D40023521E0DD40B70491CFAE70378C5
:1002B000401CCB1A921C03E01D780D70491C5B1C7E
:1002C000521EF9D5A142D8D3002070BD30B5174BCE
:1002D0000022154C5B790DE03C2555432D192D6B03
:1002E000854205D1002803D0002914D00A7012E0FD
:1002F000521CD2B29A42EFD3002210E03C25554363
:100300002D196D6B854208D1002806D0002902D036
:1003100080200243EAE7012030BD521CD2B29A424B
:10032000ECD3002030BD0000803A0020B80000204F
:1003300070B500240A4D0B4E0DE03C20604340197F
:10034000016A052905D18169002902D0042100F044
:1003500017FC641CE4B270798442EED370BD0000D7
:10036000803A0020B8000020F0B51A480222816BC4
:100370008B0001468039CA50174FFA89836B9B0066
:100380005B18DA63826B154B856B1C68144B6243F8
:10039000D218AD006D18AA67C26B521CC263826B83
:1003A000521C8263856B0F4A1278954201D3002557
:1003B0008563866B0125B6008D51816B6143C91839
:1003C000B9810564C16B5300D318994200D9C26347
:1003D000F0BD000064730020009000401C6C002001
:1003E000B03B0020BA000020034902680A6042685E
:1003F0004A60806888607047306C00200649026857
:100400000A6042684A6082688A60C268CA6000699D
:1004100008610020704700001C6C002010B500F03F
:1004200001FE10BD00B500F043F9024A0021D1627F
:1004300000BD0000D86B00200148008CC0B270479E
:10044000D86B002006494979884201D300207047C3
:100450003C214143034A0023505C53507047000045
:10046000B8000020803A00200120704770B5FFF7E7
:10047000D9FF064604203040002802D0FFF7DCFFF9
:10048000044610203040002810D000240CE0204604
:10049000FFF7D8FF0546002D04D02A462146044820
:1004A00003F0AAFF601CC4B2042CF0DB70BD000096
:1004B0009C2A0020F8B50F4604463F493F481E4697
:1004C000154681420ED83E4981420BD83D498142B2
:1004D00008D83D49814205D83C49814202D83C496F
:1004E000814201D9FB20F8BD44213A48FFF72BFE99
:1004F00018213948FFF727FE042221463548FFF727
:1005000009FE344C04223946201DFFF703FE204625
:10051000062231460C30FFF7FDFD002D2CD0204681
:10052000042229460830FFF7F5FD2C4D3222A86839
:100530000127C106C90E6971C105090FA970C1045F
:10054000090FE9708104C90F29714103C90EA16126
:100550000102C90E5143E161C101C90F002902D056
:10056000216C394321648001C00F03D0206C02212B
:100570000843206400260BE0FF206072A072002078
:100580002072D2E73146002000F01EFB761CF6B246
:1005900068798642F6D300F0DDFE01F047F90D4898
:1005A0000F495830676201600E494160092181603E
:1005B0002F700020F8BD0000703B002000000120DB
:1005C000B03B0020803A0020104500202C5900202C
:1005D000386B0020D86B0020406C0020B800002051
:1005E000204E0000983A0000F0B587B004460D4652
:1005F00016461F46FFF738FF012802D0FC2007B03F
:10060000F0BD0E480E4908604B20C0000190432009
:10061000C00002900B4803900A2004902B20059004
:1006200001A8FFF7EBFE3B46324629462046FFF77E
:1006300041FF069003F06AFE0698E0E78424550225
:10064000C0000020F811000010B50848808CC007D9
:100650000AD001F0AFF801F067F8054802F0D0FDCC
:1006600000F08AFEFFF764FE10BD0000D86B00208A
:10067000586C002010B50C4B5B79984213D23C2388
:1006800058430A4B0024C318996019619C61DA60D1
:100690005961D869032806D1186B002803D09989BD
:1006A00089B206F0A2FA10BDB8000020803A0020FE
:1006B00010B50B4900204A790A490B4B0BE03C244A
:1006C00044431C59002C04D0C86A10221043C8624D
:1006D00003E0401CC0B29042F1D3888DC0B210BD7F
:1006E000B8000020D86B0020803A00203C22124B3A
:1006F0004243D21810B5114B5B79984201D31A20AE
:1007000010BD136A052B01D0172010BDD269022A33
:1007100005D0032A06D0002A07D0F72010BD00F02C
:1007200081FB04E000F054FB01E000F039FB40B233
:1007300000F0CCFC10BD0000803A0020B800002082
:10074000F8B50C46002101700D465A49497908E078
:100750003C22594B6A43D218126A002A03D06D1CFE
:10076000EDB28D42F4D38D4201D32020F8BD057047
:10077000E069002805D002281FD0032869D0212075
:10078000F8BD208DC0B204F093F9060075D04B4837
:10079000694600680090304604F038F9E06A00903D
:1007A0006946304604F03EF93C204349684342180C
:1007B0004349304604F092F93FE007F093F9060010
:1007C00075D0E06A00900F20000703F064FF074631
:1007D000009907200F40400703F05DFF874205D0D6
:1007E0003849684602F078FF002806D0208D364947
:1007F00082B2304606F0D2FF12E030486946006807
:100800000090208D82B2304606F0C8FF002809D142
:10081000E06A0090A08C694682B2304607F00CF87E
:10082000002802D000F052FCF8BD3C202249684369
:1008300042182649304607F062F9052026632062F7
:100840006946204802F038FC2946204600F0BCF9F1
:100850002BE005F05BF9060029D0184869460068CE
:100860000090208D82B2304604F06CFB070005D06A
:10087000304604F0E5FB3846D4E718E03C200E494A
:1008800068434118304604F05BFB1149304604F0E0
:100890002FFE26630520666320622946204600F06D
:1008A00093F96946074802F007FC0020F8BD1120C3
:1008B000F8BD0000B8000020803A0020D86B00206E
:1008C000C1180000586C0020137D00003D1B000083
:1008D000050D000070B53C21484310494418206ABA
:1008E000256B052804D1606BA84203D0002D01D0F0
:1008F000172070BD002020632146284604F020FB0D
:10090000FF21284605F0C0F8002805D0044960639F
:1009100004F086FA002070BD112070BD803A0020DE
:10092000090D0000F7B582B0049900220D680A6035
:100930003C2148435D494618306A052802D01720FB
:1009400005B0F0BD002D17D07469B0680090F16853
:10095000401E0918B069A84200D205460398002835
:100960007AD067198F4209D2042D07D92A46214629
:10097000FFF7D0FB3C467FE01A20E1E74C48007CC3
:10098000800724D50F1B7F1CAF4200D32F46042FB6
:1009900005D93A4621460398FFF7BCFB04E0BAB2FA
:1009A0002146039800F0C8FD0398009CC019BD4281
:1009B00062D9EF1B042F04D93A462146FFF7AAFB60
:1009C00003E0BAB2214600F0B7FDE41954E000207C
:1009D0003EE0039A23781370039A641C521C8C42E5
:1009E00000D9009C401CA84246D223781370521CA8
:1009F000641C8C4200D9009C401CA8423CD2237845
:100A00001370521C641C8C4200D9009C401CA842EC
:100A100032D223781370521C641C8C4200D9009C83
:100A2000401CA84228D223781370521C641C8C42AC
:100A300000D9009C401CA8421ED223781370521C7F
:100A4000641C03928C4200D9009C401CA84213D223
:100A5000A842BED310E0FFE76019884203D2042DFC
:100A600001D9044608E0002004E0641C8C4200D94F
:100A7000009C401CA842F8D3049805607461B069DA
:100A8000411BB16102D1B06870613061F069032827
:100A900009D1B289306B511A89B24185F2688A4214
:100AA00001D106F0A2F800204AE70000803A0020B9
:100AB0001C6C00203C225043034A8018002901D0BE
:100AC00042690A6080697047803A002010B53C2373
:100AD0000D4C43431B191C6A052C03D000201060E9
:100AE000172010BDDB69002B05D0022B06D0032B8D
:100AF00007D0FA2010BD00F039FF10BD01F07AF8E0
:100B000010BD00F099FF10BD803A00203C225043F8
:100B1000094A8218106B002802D0126A052A01D0F7
:100B20001720704708220129018903D091430181D0
:100B3000002070471143FAE7803A002000B50E49C3
:100B40000A6812180A600D4A1178002913D0D1885A
:100B5000081880B27D210901D08088420BD3002083
:100B6000D080FFF769FC012805D1507803F016FF0B
:100B70005078401C507000BD44010020B800002097
:100B800070B504780546082913D007DC01290BD07D
:100B900002290BD0042916D1042008E010290AD01C
:100BA000402910D1402002E0012000E0022004434F
:100BB00008E00820FBE710200443686B002801D000
:100BC00004F03EFA2C6070BD70B505463C204143F0
:100BD0000848081804463C21FFF7B5FA002D04D058
:100BE00020463C222946FFF795FAA0682061606103
:100BF00070BD0000803A0020FFB504690546C16859
:100C0000601E83B0081800903C48C168491CC16050
:100C1000002C2FD00598002867D0008902900498F6
:100C2000FD22203081784908490011408170059EDD
:100C3000009872897768111981422FD93048007C59
:100C400080071BD500983946001B401C80B2024625
:100C500001902046FFF75EFA019872893918101A40
:100C6000AC6800282EDD87B23A462046FFF752FADC
:100C7000E41927E00020C04307B0F0BD002009E0E0
:100C8000397821700099641C7F1C8C4200D9AC68B3
:100C9000401C80B271898142F2D813E0042A06D93F
:100CA00039462046FFF736FA708904190AE0002019
:100CB00005E039782170401C641C80B27F1C71896A
:100CC0008142F6D83668002EB2D1A96902982C610B
:100CD0000818A861059803F0DCFDA889298B401A43
:100CE00081B2049805F07CFF01E0002B01D00020C8
:100CF000C2E7049804F0A4F9BEE70000B8000020A1
:100D00001C6C00207047000070B51F4A0D4601465C
:100D1000537900201D4A07E03C244443A418246A68
:100D2000002C03D0401CC0B29842F5D3984202D3A5
:100D30000420C04370BD3C23584384186868E062B7
:100D4000288C25636062886AA0622146284604F0E8
:100D5000F7F80F49284604F0CBFB0E49284605F06A
:100D60000BFF0D49284606F041F901220B492846A0
:100D700005F0C4F90320E061052020620821204627
:100D8000FFF7FEFE002070BDB8000020803A002072
:100D9000050D0000F90B0000E5140000E11400004F
:100DA0003C21484310B509494418206B002803D062
:100DB000216A052902D006E0172010BD03F092FE3B
:100DC000002020632062002010BD0000803A002037
:100DD000F8B50E463C214843114900254418606B84
:100DE0002F46002803D004F02BF905462762206B1C
:100DF000002810D0002E04D0012E06D0022E06D0DE
:100E000008E004F01DF9054604E0012100E000219E
:100E100003F0B2FF2762284600F058F9F8BD000041
:100E2000803A00203C21484310B509494418206B02
:100E3000002803D0216A052902D006E0172010BD42
:100E400006F060FE002020632062002010BD00003C
:100E5000803A002070B53C4957220A70A8220A70D7
:100E6000394A403A537BDF2423405373D37BFD241C
:100E70002340D37300230B703449CB70CC78DB252F
:100E80002C43CC70CD7804242543CD70FF250D7103
:100E90004E79C0252E434E718E79360936018E71FA
:100EA0008E7926438E71CC792C43CC71CC79A406F3
:100EB000A40ECC710B764C7E01231C434C768C7EA9
:100EC000E406E40E8C768C7E20252C438C768C7E7A
:100ED00010252C438C768C7EFB252C408C768C7ECA
:100EE0001C438C76C8831A48184B447920331C72F3
:100EF00004795C72C4789C728478DC7244781C73C8
:100F000000785873508B4023184350831148114A7E
:100F1000806B803A80008018806F88810A4880301A
:100F200005680D490D4A098812880C4611430B4685
:100F30001D4305604169E4431443214041618168D8
:100F40001943816070BD00004010004000900040D7
:100F500078000020647300208A0000208C000020AC
:100F600070B51549CA6B002A09D04A6B0C4692002D
:100F7000803C1219956F928F93B2002205E00020F9
:100F800070BDAE5C8654521C92B29A42F9D3486B43
:100F9000002280002250486B401C4863042800D384
:100FA0004A630648C1784906490EC170C17880225B
:100FB0001143C170184670BD64730020009000405A
:100FC00030B5124A13689B009B18DC68002305E0CB
:100FD00005785B1C2570401C9BB2641C8B42F7D3C8
:100FE00001240B48802303600A484181116889006D
:100FF000891889890181C17908221143C171044886
:101000008038036004480460002030BDA8730020CD
:1010100080E100E000900040C800002010B5FFF71C
:10102000FDF910BDF8B5234C2679700603D5FFF7FE
:101030009BF940202071300704D51F49002008602B
:1010400008202071F0062ED5012000F0A9FB1B4DD1
:101050001B4F400710D5012000F024F9E86819491A
:10106000194A0988128811430843E860E07904218D
:101070000843E07102200FE0002000F013F9A86897
:101080001049114A0988128811430843A860E07981
:10109000FB210840E07101203862F86A042108430E
:1010A000F86210202071B00702D06079032020710F
:1010B000F8BD000000900040C8000020C0100040B3
:1010C000D86B00208A0000208C000020002805D06A
:1010D000FF210131081A0249C0B2085C70470000C4
:1010E000E87C000000B50B0001F014FA05041220A2
:1010F0002E384200204A526B82431F4B5A631A46D5
:10110000126B82431A631A46126A82431A6230E0F3
:10111000194A526B8243184B5A631A46126B0243A8
:101120001A631A46126A82431A6222E0124A526B0A
:101130000243114B5A631A46126B82431A631A46D2
:10114000126A82431A6214E00B4A526B82430A4BC2
:101150005A631A46126A02431A620AE0064A526B3E
:101160000243054B5A631A46126A02431A6200E0B0
:1011700000BF00BF00BD00008010004000B50B00A4
:1011800001F0C8F9050412202E384200204A5269A5
:1011900082431F4B5A611A46126982431A611A46EA
:1011A000126882431A6030E0194A52698243184B30
:1011B0005A611A46126902431A611A46126882433A
:1011C0001A6022E0124A52690243114B5A611A46D0
:1011D000126982431A611A46126882431A6014E047
:1011E0000B4A526982430A4B5A611A4612680243FB
:1011F0001A600AE0064A52690243054B5A611A46D0
:10120000126802431A6000E000BF00BF00BD00008A
:10121000C0100040054A002105E013780370521CFD
:10122000401C4B1CD9B20629F7DB704708060400A6
:101230007CB505466846FFF7EDFF002406E06846EA
:10124000005D0521091B6854601CC4B2062CF6DB46
:101250007CBD000010B510480089C4B2C0202040F9
:10126000802801D10D4810BDC0202040402805D164
:10127000E106C90E0A48FEF739FFF4E7C020204016
:10128000002805D1E106C90E0448FEF72FFFEAE762
:101290007D200002E7E70000001000400048E80160
:1012A00000389C1C70B5074C00252070A570E570B7
:1012B000257105486571A11D0068FEF76FFF657017
:1012C00070BD0000BC7300204401002070B51449BB
:1012D00005460878002816D00C46881DFEF754FFF6
:1012E0007D21281AC90088420CD9A11D2846FEF785
:1012F00055FFE078A17800020843052808D90020AE
:10130000FFF7D0FF70BD2846891DFEF747FF70BD6F
:10131000401CA070000AE07000F078FA70BD000078
:10132000BC73002010B504460020FFF7BBFF074840
:10133000002C07D00121417005480222C16A1143E7
:10134000C16210BD0021417010BD0000BC730020BF
:10135000D86B002010B50548FFF77CFD044900203C
:10136000086004490120086210BD00004F0200001F
:10137000C8000020D86B0020F8B5324C606800909F
:101380003148016A01295CD00099A268C069891AB4
:101390004008814215D30098A0602D4962782B48FF
:1013A0000988002A08D082680A4205D100226270AA
:1013B00082680A43826002E0C2680A43C26005F0A4
:1013C000EFFF0098E168401A2249884203D3009851
:1013D000E06001F09DFE2048C16800290AD0009914
:1013E000E269891A7D22D200914203D30099E1611A
:1013F00040688047194DFF262868F536002816D02A
:1014000000982169401AB04205D3009820612869EC
:10141000002800D0804700986169401A104988422E
:1014200005D3009860616869002800D08047009863
:10143000A169401AB04201D90098A0610098FFF755
:1014400045FFF8BD40010020D86B0020C0100040CF
:101450008C00002088130000C8730020406C00201E
:1014600060EA000001490120C8637047D86B002082
:10147000F8B5064600256846057069463046FEF711
:1014800025FF00280BD0684600781349020607D5CF
:101490004006400E3C225043401845630562F8BDAB
:1014A0003C22424354180D4949798842F7D2E069F9
:1014B0000328F4D1367C20463C21FEF744FE092E59
:1014C00008D00A2E06D040212046FFF759FB25639D
:1014D0002562F8BD1021F7E7803A0020B80000200F
:1014E0000020704738B5846B0022002C01D04B6F70
:1014F00004E0002038BD521C1B6892B2002BFAD1C8
:10150000896F02E0521C096892B20029FAD10023C7
:1015100000921A461946A047EBE7000010B5054CAB
:1015200023636263A1636061E06A01210843E062B2
:1015300010BD0000D86B002003E00B780370401C46
:10154000491C1346521E92B2002BF6D17047000080
:1015500000202449897A0822114000290BD1572103
:10156000204A40321170A82111701E49897A082240
:1015700011431C4A917257211A4A40321170A82116
:1015800011700521174A118116492031098803225B
:1015900052029143134A203211801249897A102253
:1015A0001143104A917200210E4A4032117017E027
:1015B0000C4920318979C907C90F002901D00020C1
:1015C00000E0401C7D210901884209D95721054AC4
:1015D00040321170A8211170012191710021117008
:1015E000E6E7000000100040C206D20E0121914043
:1015F000014A11607047000000E100E0002823D19B
:101600005722254B1A70A8221A7080220A40002AFD
:1016100007D0214A403AD27B02231A431E4B403B5B
:10162000DA731D4A403A927A1C230B409A431A4BB4
:10163000403B9A72184A203AD27B8B079B0F9A4301
:10164000154B203BDA7322E05722134B1A70A82265
:101650001A7080220A40002A07D00F4A403AD27BF3
:1016600002239A430C4B403BDA730B4A403A927A7E
:101670001C230B401A43084B403B9A72064A203AFF
:10168000D27B8B079B0F1A43034B203BDA7300225C
:10169000014B1A70704700004010004010B504461E
:1016A000002C0BD1572014490870A8200870002086
:1016B000114920390871104908701BE057200E4964
:1016C0000870A820087001200B4920394871087162
:1016D000002009490870012002F00DFC572006493E
:1016E0000870A82008700D200349203908710020D7
:1016F0000149087010BD000040100040F8B50746D1
:101700000C4615460026002C01D1481EF8BD2A467D
:101710002146384603F0E0FA0646AE4202D00120E8
:10172000C043F3E73046F1E710B5124C206C0028B7
:101730001CD111A000F0DEFEA06B81002046803895
:101740004158002901D0002010BDA26B0121920058
:101750008150A06B0C4A128850430C4A82180C48E6
:101760008281C27904231A43C2712164206CC0B201
:1017700010BD000064730020517561727945746872
:101780005278446D610D0A001C6C0020B03B0020B3
:10179000009000400148007970470000B800002028
:1017A000C006C00E2021084301490871088870470F
:1017B00020900040F8B50C4E0025B46911E0204699
:1017C000FFF756FE204604F049FCE068002D01D0EA
:1017D000E86000E0B06121460220E76802F0E8FC22
:1017E0003C46002CEBD1F8BDE8000020572006490C
:1017F0000870A82008700846807901210843024932
:1018000088710020087070474010004038B5064CC1
:1018100000206168009160606946204601F04CFC40
:101820000098606038BD0000586C002030B587B06B
:1018300000251D4C039504951A48059520620C3827
:101840006062001DA062001DE06202F01BFB04222A
:1018500003A8616AFEF75EFC042204A8E16AFEF7B1
:1018600059FC042205A8A16AFEF754FC06220F4881
:10187000216AFEF74FFC0E4805600E4805600B48D4
:101880002B3802F0A9FE0C4802900C490748019140
:1018900005AB04AA009503A92B3802F065FE07B03A
:1018A00030BD0000E46B002040010020836C00206C
:1018B000E0000020E400002059310000BD310000AC
:1018C000FFB504690546C168601E81B00F18039812
:1018D00000264068417802780802104302F0DDFEDD
:1018E0000005000F80004142039802F0F4FF002839
:1018F00002D0002005B0F0BD0398002834D0002CA1
:101900000CD0E868002809D00398428941689319EF
:1019100012199EB2BA4212D900220CE0039802F0CA
:10192000B8FF21E00B782370491C641CBC4200D92D
:10193000AC68521C92B243899342F3D80AE0002269
:1019400005E00B78521C2370491C92B2641C438939
:101950009342F6D800680028D7D1039802F099FF87
:10196000A8692C618019A8610120C3E7F7B53C2163
:1019700048432F490025146884B040181560164666
:101980000290002C14D00598002811D00298006B0A
:1019900003902848006C800700D4C7256D1CADB2A9
:1019A000C82D40D8B920C000844204D9009004E07A
:1019B0001A2007B0F0BD2046009481B200221046E4
:1019C00002F06EFE070030D07868009A0599FEF7A5
:1019D000A1FB18490020C8633946039803F09CF81E
:1019E0000190384602F055FF1248C06B002802D122
:1019F000019800280DDA0020306040210298FFF79E
:101A0000BFF80198002802DAFFF760FBD1E7FA205F
:101A1000CFE73168009808183060009905984018A1
:101A20000590641ABAD10020C3E71120C1E7000075
:101A3000803A0020D86B0020F7B50025146882B0EA
:101A400017462E461560002C15D00399002912D098
:101A50003C21484337494018006B01903648006CE0
:101A6000800700D4C726761CB6B2C82E06D93868BF
:101A7000002850D156E01A2005B0F0BD0198007C36
:101A8000042801D01720F7E72B48006C800701D508
:101A9000FEF7DAFD01984030C08D0090002807D095
:101AA000254D4435287CC00704D10098844201D9D3
:101AB0001120E1E70098844200D8009468680099FA
:101AC000884200D20090019804F0B6F81A484430D9
:101AD000007CC007009802D082B2012301E082B2EC
:101AE00000230399019805F087FC050005D0681CC8
:101AF00001981BD004F0A0F814E0019804F09CF8C1
:101B0000054639680098081838600099039840180D
:101B10000390641A01D10020AEE707484430007CEE
:101B2000C007A0D12846FFF7D1FAA5E704F084F852
:101B3000F3E70000803A0020D86B0020FFB505468F
:101B40000469C068611E4718A96B002681B09446DD
:101B5000002902D0AC68611E4718110006D0002C85
:101B600001D0002804D1084602F093FE05B0F0BD74
:101B70004B8948689A1996B21A19BA420ED90023AD
:101B800008E002782270401C641CBC4200D9AC689A
:101B90005B1C9BB24A899A42F3D80AE0002305E015
:101BA00002785B1C2270401C9BB2641C4A899A42DA
:101BB000F6D809680029DBD101200003864200D94C
:101BC0000646604602F065FEAF6B002F0DD004980C
:101BD000FEF7DAFA00960146AB6828460A9AB8473B
:101BE0000020A861A8682861C0E7A8692C61801955
:101BF000A861BBE7F7B50025146884B016461560E8
:101C0000002C17D00599002914D03C2148432749BE
:101C10004018006B02902648006C800700D4C7254E
:101C20006D1CADB2C82D3CD817208001844204D36E
:101C3000009004E01A2007B0F0BD2046009481B265
:101C40000022104602F02CFD07002CD07868009A84
:101C50000599FEF75FFA16490020C86339460298D5
:101C600005F06AFF0190384602F013FE1048C06B81
:101C7000002802D10198002809DA0020306001987C
:101C8000002802DAFFF722FAD5E7FA20D3E7316815
:101C90000098081830600099059840180590641A5B
:101CA000BED10020C7E71120C5E70000803A002020
:101CB000D86B002004480368406800215A1C484142
:101CC00001490A60486070475000002010B5572055
:101CD00008490870A8200870882006494039088102
:101CE0000020044908700A2002F005F90120FFF7DE
:101CF000D5FC10BD4010004010B50E48007D0028F6
:101D000004D00C48007D401E0A4908750A488079B5
:101D1000C007C00F00280CD0012007498871074870
:101D20000068401C054908600120FEF707FF02F02B
:101D30007FFA10BDFC250020002000404C00002050
:101D40000349C8600221024A1170042111707047D2
:101D50000020004010B588B028480078002849D1FC
:101D60002748007D002845D164202549087508468C
:101D7000048B3AE06001001B224A81181F2268464A
:101D8000FEF7C8F96846807F00282CD06846837F1C
:101D90001D48006840783C2250431C4A80186A461F
:101DA000416A1B4805F03CF86846827F694601207D
:101DB00005F0B4FC00206101091B124A89188877DC
:101DC0006101091B88181F21FEF7BDF9601C0C4931
:101DD00008830846008BFF212D31884202DB00205A
:101DE0000749088305E0601C84B2FF202D3084423F
:101DF000C0DB00BF05F08EFB08B010BD2400002042
:101E0000FC250020BC0100200C000020803A0020AE
:101E10000800002070B50446FFF71CFA0A21484369
:101E2000C60821463046FEF74BF905460A21681DD3
:101E3000FEF746F9054601498D8170BD003000402E
:101E400010B54B200002FFF7E5FF472004498870DA
:101E50000320C870402048700120887310BD000026
:101E60000030004000280BD0084A52780A43074B44
:101E70005A701A46127808231A43044B1A7004E069
:101E8000024A52788A43014B5A7070470030004032
:101E900008B5294800790007000F04280DD004DC9C
:101EA000002844D0022843D12DE0062802D00C2877
:101EB0003ED110E0204840793BE01F48007A009076
:101EC000012269461D48FFF719FC1D480068401CA7
:101ED0001B4908602DE01848007A009001226946ED
:101EE0001648FFF70BFC16480068401C14490860B0
:101EF0000846006813490860002011490860012065
:101F00001149087015E0114802F054FE002809DD5F
:101F100001220F490D4802F08DFE0D480078064958
:101F2000087203E002210020FFF79CFF01E000E0BF
:101F300000BF00BF08BD000000300040C4370020D3
:101F400034000020380000203C0000209C38002095
:101F50003D00002070B50446FFF77CF90A21484394
:101F6000C60821463046FEF7ABF805460A21681D33
:101F7000FEF7A6F8054601498D8170BD003400408A
:101F800010B54B200002FFF7E5FF47200449887099
:101F90001B20C870402048700120887310BD0000CD
:101FA0000034004000280BD0084A52780A43074BFF
:101FB0005A701A46127808231A43044B1A7004E028
:101FC000024A52788A43014B5A70704700340040ED
:101FD00008B5294800790007000F04280DD004DC5B
:101FE000002844D0022843D12DE0062802D00C2836
:101FF0003ED110E0204840793BE01F48007A009035
:10200000012269461D48FFF779FB1D480068401C06
:102010001B4908602DE01848007A009001226946AB
:102020001648FFF76BFB16480068401C144908600F
:102030000846006813490860002011490860012023
:102040001149087015E0114802F0B4FD002809DDBF
:1020500001220F490D4802F0EDFD0D4800780649B8
:10206000087203E002210020FFF79CFF01E000E07E
:1020700000BF00BF08BD00000034004078360020DB
:10208000280000202C0000203000002050370020C5
:102090003100002070B50446FFF7DCF80A21484300
:1020A000C60821463046FEF70BF805460A21681D92
:1020B000FEF706F8054601498D8170BD00380040E5
:1020C00010B54B200002FFF7E5FF47200449887058
:1020D0001B20C870402048700120887310BD00008C
:1020E0000038004000280BD0084A52780A43074BBA
:1020F0005A701A46127808231A43044B1A7004E0E7
:10210000024A52788A43014B5A70704700380040A7
:1021100010B5644800790007000F04280DD004DCD6
:1021200000287DD002287CD1A3E0062802D00C280C
:10213000F9D165E05B484079B1E05A48047A5A48E1
:102140005A490968445459480068401C5749086076
:102150005748C07D002826D108460068C01E524955
:10216000085C53284BD151480068801E085C482801
:1021700045D14E480068032841DB4C480068401EAA
:10218000085C001D88775320087048204870474835
:102190000068401E085C88700320444908600120E4
:1021A0004349C8752BE04048807F40490968884210
:1021B00025DC00203D49086001203E4908703C496B
:1021C000498B4A01511A3C4A88181F223649FDF7AB
:1021D000A1FF00203449887700213548C175408B24
:1021E000401C334948830846408BFF212D318842EB
:1021F00002DB00202E49488300202E4908704EE063
:102200002848047A2848294909684454274800681E
:10221000401C264908602448807F0968884201E004
:102220003BE03BE024DC00202049086001202149FC
:1022300008701F49498B4A01511A1F4A88181F22EA
:102240001949FDF767FF0020174988771849C875B5
:102250000846408B401C48830846408BFF212D31A7
:10226000884202DB0020124948830020114908708F
:1022700015E0124802F09EFC002809DD01221049F9
:102280000E4802F0D7FC0E4800780649087203E0B9
:1022900002210020FFF726FF01E000E000BF00BFA1
:1022A00010BD0000003800405C3A00201C000020F7
:1022B000FC25002024000020BC0100200436002062
:1022C0002500002070B50446FEF7C4FF0A214843EC
:1022D000C60821463046FDF7F3FE05460A21681D73
:1022E000FDF7EEFE054601498D8170BD003C0040C2
:1022F00010B5E1204002FFF7E5FF87200449887010
:102300000320C870402048700120887310BD000071
:10231000003C004000280BD0084A52780A43074B83
:102320005A701A46127808231A43044B1A7004E0B4
:10233000024A52788A43014B5A707047003C004071
:1023400010B5644800790007000F04280DD004DCA4
:1023500000287DD002287CD1A3E0062802D00C28DA
:10236000F9D165E05B484079B1E05A48047A5A48AF
:102370005A490968445459480068401C5749086044
:102380005748C07D002826D108460068C01E524923
:10239000085C53284BD151480068801E085C4828CF
:1023A00045D14E480068032841DB4C480068401E78
:1023B000085C001D88775320087048204870474803
:1023C0000068401E085C88700320444908600120B2
:1023D0004349C8752BE04048807F404909688842DE
:1023E00025DC00203D49086001203E4908703C4939
:1023F000498B4A01511A3C4A88181F223649FDF779
:1024000089FE00203449887700213548C175408B0A
:10241000401C334948830846408BFF212D318842B8
:1024200002DB00202E49488300202E4908704EE030
:102430002848047A284829490968445427480068EC
:10244000401C264908602448807F0968884201E0D2
:102450003BE03BE024DC00202049086001202149CA
:1024600008701F49498B4A01511A1F4A88181F22B8
:102470001949FDF74FFE0020174988771849C8759C
:102480000846408B401C48830846408BFF212D3175
:10249000884202DB0020124948830020114908705D
:1024A00015E0124802F086FB002809DD01221049E0
:1024B0000E4802F0BFFB0E4800780649087203E0A0
:1024C00002210020FFF726FF01E000E000BF00BF6F
:1024D00010BD0000003C00405C3A0020400000209D
:1024E000FC25002048000020BC010020E839002025
:1024F000490000200FB410B503A9044B044A029808
:1025000000F024F810BC08BC04B018478133000068
:10251000B801002030B47446641E2578641CAB42B8
:1025200000D21D46635D5B00E31830BC184702E033
:1025300008C8121F08C1002AFAD17047704700204E
:1025400001E001C1121F002AFBD17047FFB591B015
:102550000F460546002606E025280AD0149A13994E
:1025600090476D1C761C28780028F5D1304615B0B0
:10257000F0BD002400940121F34A029400E00443DA
:102580006D1C2B780846203B98401042F7D12878E4
:102590002A280ED0022128780246303A092A15D876
:1025A000009A0A235A43303A80180C436D1C00905D
:1025B000F1E701CF0090002805DA01204003044331
:1025C000009840420090022004436D1C28782E2879
:1025D00015D10420044368786D1C2A280AD101CF44
:1025E0006D1C02900BE002990A22514330394018C9
:1025F0006D1C02902878014630390929F3D92878D2
:102600006C2810D006DC4C281AD068280ED06A2816
:1026100017D104E0742813D07A2812D110E00120D9
:10262000400504430CE00121090501E003210905EF
:102630000C436978814203D10120000524186D1CE8
:102640006D1C287803906E281ED00CDC632831D0D6
:1026500004DC00288AD0582811D1B2E064287BD04D
:1026600069280CD178E073282DD004DC6F2870D055
:10267000702804D1A7E075286CD078286BD0149A04
:1026800013999047761C62E06002400F022807D041
:1026900003280AD0042838680AD006603F1D56E097
:1026A0003868F11706604160F8E738680680F5E79A
:1026B0000670F3E73878694608740020487404A867
:1026C0000390012003E0386803900020C0433F1DC1
:1026D00061070FD5002101E00199491C029A01917F
:1026E000914213DA8142F7DB019A0399895C002950
:1026F000F2D10BE0002101E00199491C01918142D6
:10270000FADB019A0399895C0029F5D101990098B7
:10271000139A401A00902146149B00F03BF901994E
:102720008019461807E0039803990078491C039123
:10273000149A139990470198401E0190401CF2D1C1
:102740002146149B139A009800F014F986196D1C09
:1027500009E741E033E034E00A20002104900591CC
:102760006002410F022905D001CFC2179446032908
:1027700005D007E0FF1DFF08FF0003CF06E000B211
:10278000C2179446042902D140B2C1178C460022D8
:102790006146944506DA0A460021404291418C4642
:1027A0002D2102E0210504D52B216A461176012155
:1027B00003E0E10701D02021F7E7019154E00A206E
:1027C0000BE0102009E010200490002104200443B5
:1027D00008200591029003E0082000210591049053
:1027E0006002410F022905D001CF0022944603293F
:1027F00006D006E0FF1DFF08FF0003CF8C4603E074
:1028000080B2042900D1C0B20021019121072BD54B
:102810000399702906D0049A1021059B4A401A4357
:1028200005D00EE040216A461176012108E061469C
:10283000014306D030216A46117603995176022170
:102840000191049A0821059B4A401A430CD1614624
:10285000014301D1610707D530216A461176012174
:1028600001910299491E02910399582904D037A178
:1028700003910FA90F910DE039A1F9E76146059B7E
:10288000049AFDF794FC039B8C469B5C0F9A521EA6
:102890000F92137061460143F0D10F9807A9081AEF
:1028A00020300390600704D501200004844302987F
:1028B00001E0012002900399884201DD401A00E006
:1028C000002041180290019809180098401A0090C1
:1028D000E00306D42146149B139A009800F05AF89E
:1028E00086190020049008E006A9085C149A139940
:1028F00090470498401C761C049001998842F3DBB1
:10290000E0030CD52146149B139A009800F042F87E
:10291000861904E0149A302013999047761C029986
:10292000481E02900029F5DC08E00F980F99007806
:10293000491C0F91149A13999047761C0399481ECD
:1029400003900029F1DCFBE6092801003031323325
:1029500034353637383961626364656600000000DB
:1029600030313233343536373839414243444546C5
:1029700000000000F8B5044600251E4617468804EE
:1029800004D405E039462020B0476D1C641EF9D5FB
:102990002846F8BDFFB50446002581B01E46C80391
:1029A00001D5302700E02027880404D505E038460B
:1029B0000399B0476D1C641EF9D5284605B0F0BDDB
:1029C00070B504000ED0256A002D0BD0A87C082815
:1029D00008D10846FDF7D8FBA96A884202D12046F3
:1029E00000F09CF870BD0000F8B5050010D02C6A0E
:1029F000002C10D00022FF213531104601F050FE8E
:102A0000606100280AD0E27C4249002A09D00BE02C
:102A10000920C043F8BD0820C043F8BD0020C043D2
:102A2000F8BD4A68521C4A6049682160416801202B
:102A3000A1610870A16900264870A169062088700C
:102A4000A069C670206800F0ADFCA169091DFDF702
:102A5000A5FBA069310A06724172A069310A86722B
:102A6000C172A16900200C31FDF798FBA07C0A28F7
:102A700003D0052801D0042804D1A16968680C316D
:102A8000FDF78CFBA16900201031FDF787FBA169E0
:102A900000201431FDF782FBA16900201831FDF7F9
:102AA0007DFB0020294620318A7A824203D92A18E8
:102AB0002032D27A00E0002207461C37A369401C6E
:102AC00080B2DA551028EFD3002001462C31A269DC
:102AD000401C80B256544028F7D3002001466C3188
:102AE000A269401C80B256548028F7D30A4800F0EF
:102AF00059FCA169EC31FDF751FBA683002001468A
:102B0000A269F0315054401C80B24428F7D3002011
:102B1000F8BD0000B000002063538263F8B505469D
:102B2000046A002000900C21204600F0EFF82846AF
:102B3000FFF75AFF060046D101223521204600F05A
:102B40005AF80421204600F066F80422322120467B
:102B500000F051F8A06A01F09EFD0146204600F009
:102B600062F804223621204600F045F8606A01F040
:102B700092FD0146204600F056F807223D212046EE
:102B800000F039F829462B31204600F06DF8204638
:102B900000F0A4F8A08BF03081B2606901F0CEFEA5
:102BA000A169A06A0C31FDF7F9FA6F6800986860B6
:102BB00000954323074A6169606804F0D8FF2846FE
:102BC0006F6000F009F8E07C401CE0740420E083B2
:102BD0003046F8BD177D000010B500280AD0046A01
:102BE000002C07D06069002801D001F052FE0020BF
:102BF0006061A06110BD10B5838B8469E4185B1C13
:102C00008383E0342174818B83695B18491C818341
:102C1000E0331A7410BD828B83699B18521C828327
:102C2000E0331974704710B5828B83690C0E9B18C2
:102C3000521C8283E0331C74828B84690B0CA418B1
:102C4000521C8283E0342374828B84690B0AA4189B
:102C5000521C8283E0342374828B83699B18521C3C
:102C60008283E033197410BD10B5828B836901240F
:102C70009B18521C8283E0331C74828B83690C780E
:102C80009B18521C8283E0331C74828B83694C78BE
:102C90009B18521C8283E0331C74828B83698C786E
:102CA0009B18521C8283E0331C74828B8369CC781E
:102CB0009B18521C8283E0331C74828B83690C79CD
:102CC0009B18521C8283E0331C744B79818B826980
:102CD0005218491C8183E032137410BD002814D0AF
:102CE000818B8269FF235218491C8183E03213745F
:102CF000002305E082695218491C8183E032137475
:102D0000818B4429F6D38A07F4D17047827C8A42AA
:102D100002D081740021C17470470000F7B584B0FF
:102D200006007DD0069840892B287AD306984568FE
:102D300001202C460F3400F037FB6178227809021D
:102D4000114388427CD1414800F02EFB0146607956
:102D5000227900021043814272D10120C00200F0AA
:102D600023FB0146E078A27800021043814267D13C
:102D7000374800F019FBAA7B6B7B1102194388428C
:102D80005ED121460E31042202A80091FDF7C2F95E
:102D900021461831042203A80191FDF7BBF97068A0
:102DA000002805D00399814202D101273B4601E06A
:102DB00000273B462246083202A9304604F04CFF69
:102DC000E079A1790002084300F0EEFA012802D070
:102DD000022835D126E0002F32D0022000F0E4FA9C
:102DE000A071000AE071042200990198FDF792F9A0
:102DF0000422311D0098FDF78DF90621491EC9B244
:102E00006018027A82746B185A70059A0029525C15
:102E100002720598405CD871F0D1B26906990DE054
:102E200011E00DE002A93046FFF7CAFD094801682C
:102E3000002905D0C268002A02D002A93046904776
:102E4000069801F026FD07B0F0BD00000406000062
:102E500006080000406C002070B5050011D04C68D9
:102E600020461B300646FDF78FF9A9686A680840BE
:102E70000A40904205D10023E21D3146284604F065
:102E8000EBFE70BDFEB50E46044615460F213046DA
:102E900001F021FD002802D00120C043FEBD2146E3
:102EA000284600F019FC002801D0284B2FE02846C6
:102EB000FDF76AF907460F20000701F0ECFB074019
:102EC0000720400701F0E7FB874227D10121684630
:102ED0000170002141705E2181702846FDF754F990
:102EE00001F0D9FB4002410E6846C1702846FDF74B
:102EF0004BF901F0D0FB010A684601712846FDF745
:102F000043F901F0C8FB0146684641716B46224611
:102F10002B323146204600F0E1F8FEBD2846FDF791
:102F200033F9A168626808400A40904204D0E06822
:102F3000002807D025460C3532462946204600F0A9
:102F400007F8FEBD0320C043FEBD00001B7D00004E
:102F5000F7B586B006980D462B3000900020C04390
:102F6000019014462846069900F0B6FB002827D1A8
:102F70002846FDF709F906460F20000701F08BFBF4
:102F800006400720400701F086FB864218D0002D3E
:102F900016D02846FDF7F8F8002811D00121284660
:102FA00000F066F900280DDB144E0701706839182F
:102FB000887A002808D0012808D0002C06D00EE01E
:102FC0000920C04309B0F0BD01208872FEF74AFA1B
:102FD0002946069800F070F80190002C0BD070681C
:102FE0003B18987A022806D121461B1D009A0698A4
:102FF00000F074F801900198E4E700003801002027
:10300000FFB581B01F4600222B21032001F048FBB1
:1030100006004AD075680D982C460F3400F0C4F9AC
:10302000A071000AE0710620401EC0B23A5C21186F
:103030000A720B9A125C8A7403990A5C29184A7006
:10304000029A0028125CCA71EED1204604220E308A
:103050000A99FDF75FF82046042218300C99FDF715
:1030600059F8012000F0A0F92070000A60700120DA
:10307000C00200F099F9A070000AE0700C4800F05E
:1030800093F92071000A60710A4800F08DF96873A5
:10309000000AA87301983146826990470446304679
:1030A00001F0F7FB204605B0F0BD0020C043FAE771
:1030B00004060000060800001FB501230393064C18
:1030C000021D0346009202912B3301941946A21F60
:1030D000FFF796FF04B010BD217D0000F8B54D68E4
:1030E0000E4607460624641EE4B22819195D417095
:1030F000115DC171002CF6D10120C00200F054F91D
:103100006873000AA873BA69314638469047F8BD1B
:1031100030B50F4900200F4C4B6814E00101C9186D
:10312000CA7A521CD2B2CA728D7A022D02D0012DF7
:1031300003D006E0F02A02D203E0022A01D30022E3
:103140008A72401CC0B2E1688142E7D830BD0000FD
:10315000380100201C6C002070B5044640680D4604
:10316000817B427B0802104300F01EF90121C90255
:10317000401A04D0062816D00F49C8420AD1214669
:103180002846FFF769FE0E21C943204601F0A3FB44
:10319000002803D0204601F07CFB0AE029462046A7
:1031A00000F064FB05E0294622462B312846FFF754
:1031B000B5FD002070BD00004F66FFFF10B5FFB0E9
:1031C00081B0044668460B496062FCF7D4FF204694
:1031D00065212030E56181746E21C174064860610B
:1031E0000648A061204600F031FD7FB0002001B00C
:1031F00010BD0000B0720020852E0000E13D0000EF
:1032000070B505461648C16B002927D0154A51787C
:10321000491C5170144A80211160C06B134A00068A
:10322000000E11601AD0284600F06EFD040015D083
:103230006068817B427B0802104300F0B5F80121F1
:10324000C902401A01D0062805D12A69294620461C
:103250009047002802D0204601F01BFB70BD000003
:10326000647300204001002080E100E000E100E004
:10327000F3B5414887B0C76800247DB202943F4946
:1032800001950394009507984E6800284DD0084694
:1032900000780590000104908019807A022844D1BA
:1032A0000798FCF771FF0499715888423DD1059841
:1032B00040B209B0F0BDAF4204D120018019807A3C
:1032C000002809D02001059080190490807A0128F7
:1032D00004D0022816D026E065B224E00798002822
:1032E00007D0FCF751FF05997158884201D1234856
:1032F0003FE004980399C07A884214D361B20191E7
:10330000039010E00798002805D0FCF73DFF0599D1
:1033100071588842EBD004980299C07A884202D34F
:1033200061B200910290641CE4B2A742C3D80020AD
:10333000C043AF4202D10899C907BAD0089989079A
:10334000B7D4AF4201D9ECB206E000998F4202D85F
:1033500001998F42ADD9CCB227010020BD19A872C6
:103360000798002802D0FCF70FFFF0510021034816
:10337000E972047060B29CE71C6C002038010020E8
:1033800038B504460D46E0B2009001226946044873
:10339000FEF7B4F902210120FEF704FE204638BDF5
:1033A0005037002000BA704740BA704710B50A463F
:1033B000032100F0FBF810BDF3B5456804466878BA
:1033C0002978000289B0084301F067F90005000F71
:1033D0008000414207900091204601F07CFA0028CD
:1033E00024D12089042821D366683078032802D0AC
:1033F0000828F5D11BE0707C327C00021043314676
:103400000831377A000A0D4601900422103103A8D2
:10341000FCF780FE3807800E28188178C0780902F2
:1034200001437378019A0398FEF778F8B6E02846CE
:10343000103001260490FCF7A7FE07460F20000776
:1034400001F029F907400720400701F024F98742DD
:1034500000D100260A99049800F03EF9002802D015
:10346000FEF798F99AE0FEF795F900287ED0002E35
:103470007CD02089082879D3204600F0D2F8002893
:1034800074D12221204601F026FA00281DD02046C2
:10349000079901F020FA002868D121890022022032
:1034A00001F0FEF8060079D0214601F0A8F90028C5
:1034B00074D175683046009901F00DFA00286DD17D
:1034C000204601F0E6F9344606E02121C9432046B2
:1034D00001F001FA002861D128460C306668069098
:1034E0000490FCF751FE07460390284610300090E8
:1034F000FCF74AFE0499FCF751FE38460099FCF7A8
:103500004DFE002737702848FFF74EFF0146F07840
:10351000B278000210430122D2028142104607D83D
:10352000FFF742FFF178B27809021143401C05E031
:10353000FFF73AFFF178B278090211434018B070F2
:10354000000AF070687A297A0002084301F0A5F8B1
:103550000121C0B2C9034018FFF726FF2872000AF4
:103560006872380AAF72E872142100E016E028464B
:1035700000F051F8A872000AE8722046079901F09D
:10358000AAF900280AD10A9801210191029080230A
:10359000002200972046069900F0A8FA204601F084
:1035A00078F90BB0F0BD0000FFF70000F7B50E464C
:1035B00082B000222421012001F072F8050028D0F9
:1035C00002986C684768267004986070002626711F
:1035D0006671A671E67102981C224168686808301D
:1035E000FCF798FDA670300AE0706989204600F06B
:1035F00012F8A070000AE07001203A460190802382
:103600000C3200210096284600F056FA284601F0B8
:1036100040F905B0F0BD10B500F042FCC04380B2E7
:1036200010BDF8B500252E46044601270FE061893C
:10363000606800F035FC4019010C80B20D18A07ACA
:10364000C00703D0B81BC6B268BA85B22468002C84
:10365000EDD1002E01D068BA85B2E84380B2F8BD42
:10366000FFB5002581B02E46044601270FE0618991
:10367000606800F015FC4019010C80B20D18A07AAA
:10368000C00703D0B81BC6B268BA85B22468002C44
:10369000EDD1002E01D068BA85B20298FCF774FD16
:1036A00081B24919000C44180398FCF76DFD81B2F2
:1036B0000919000C44180498FFF776FE04190A98BB
:1036C000FFF772FE0019010C80B20818010C0818EF
:1036D000C04380B205B0F0BD10B50C46FCF754FDF8
:1036E0000246411C13D0002A11D03121095D8907FF
:1036F0000BD56168914208D0A06813460340014091
:103700008B4202D11043401C01D0002010BD01208B
:1037100010BDF7B58EB004460F981426008D0090AA
:1037200060680790C179827908020025104300F093
:10373000B4FFC104C90C05910121490308400A9056
:103740002089143887B200981438C117490F08909F
:1037500008184003000C09907FE00898874201DCBC
:10376000012000E0002005990A9AC904C90C114300
:103770000B9100281AD0384680B2069000221421FE
:10378000022000F08DFF0490002817D0406814221A
:103790000799FCF7BFFC049840680C90606880199A
:1037A00060606089801B6081069E26E008460121DA
:1037B000490308430B900998C000DDE70020C0438F
:1037C00011B0F0BD6589B54200D93546002D13D042
:1037D00002220021032000F063FF010042D0606854
:1037E00048600D814D81049800F0E4FF701B0604D1
:1037F000360C04D02468E5E72468002EE2D12E467A
:103800000B98FFF7D1FD0C998871000AC8710698D2
:10381000143080B2FFF7C8FD01460C988170090A88
:10382000C1700C9800218172C17214210C98FFF7AD
:10383000F2FE0C998872000AC8720F98109A4369B8
:1038400004999847049801F024F806980999381AC1
:1038500087B20598401880B20590002F00D07CE711
:103860000020ADE7049801F014F8A7E7F3B585B0A0
:103870000120039005980E46456868782978000273
:10388000084300F00AFF000B042803D0059801F05C
:1038900000F806E1687829780002084300F0FDFE90
:1038A0000005000F80000090E878A9780002084326
:1038B00000F0F3FE04460598418900988142E5D363
:1038C00005980089A042E1D328460099FFF7A3FE9E
:1038D0000028DBD12146059801F030F80120029044
:1038E0000F203446000700F0D6FE0720400700F006
:1038F000D2FE204600F05CFE002820D0201D1ED005
:103900006768002F1BD0284610300190FCF73CFC64
:10391000B84223D021460198FFF7DEFE00281DD1D2
:103920000198FCF731FC07460F20000700F0B3FEBA
:1039300007400720400700F0AEFE87420ED00298F5
:10394000002804D0002002905748046800E0246852
:10395000B44200D12468002CCBD101E0002C2DD141
:10396000687A297A0002084300F097FEC0B2112855
:103970000ED100982918C87889780002084300F011
:103980008CFE442804D1002034460390002E15D12B
:10399000687A297A0002084300F07FFEC0B211283D
:1039A0000CD100982918C87889780002084300F0E3
:1039B00074FE3E49884201D134461FE00398002836
:1039C0001CD028460C300746FCF7DEFB002815D03B
:1039D00031463846FFF780FE002800D056E73846CB
:1039E000FCF7D2FB07460F20000700F054FE07400B
:1039F0000720400700F04FFE8742EFD0002CEDD0AB
:103A00002B48FFF7D1FCE979AA7909021143084252
:103A1000E4D1284C31466660A560059801F00EF8A7
:103A200000283BD1687A297A0002084300F035FE6D
:103A3000C0B2012815D006280ED01128314607D073
:103A4000284610300646FFF747FE00280ED022E039
:103A5000059803F035FF21E03146059801F080FD1F
:103A60001CE031460598FFF7A7FC17E03046FCF74D
:103A70008BFB06460F20000700F00DFE06400720D6
:103A8000400700F008FE864205D0059802214560F7
:103A90000598FFF78BFC059800F0FBFE00206060A6
:103AA000A060002007B0F0BDE00000206C0700001F
:103AB000FF3F0000AC010020FFB583B01F46164653
:103AC00010460C9D0D9C00F097F800280AD002903B
:103AD0003B463246009501940499039800F006F89D
:103AE00007B0F0BD0320C043FAE70000FFB581B086
:103AF000064603980C9D1F46002865D014200146F9
:103B00000090304600F0E7FE002803D00120C043BB
:103B100005B0F0BD7468607A217A0002084300F0B5
:103B2000BCFDC0B239020843FFF73EFC2072010A17
:103B3000617200F0B2FD000A0B9900020843FFF722
:103B400033FC2072000A60720398FCF71DFB2146CB
:103B50001031FCF723FB05200A99000208430121DC
:103B60008903084380B2FFF71FFC2070000A6070D1
:103B70003089FFF719FCA070000AE0700020A071E6
:103B80001C4FE0713888FFF70FFC2071000A60714C
:103B90003888401C38800298002803D0FCF7F4FADB
:103BA000002802D1281D00D0686821460C31FCF79E
:103BB000F5FA0020A072E07220460099FFF72BFD75
:103BC000A072000AE07202E0706810300390288D45
:103BD000002808D03189814205D929463046039A08
:103BE000FFF797FD94E76B6931462846039A98479B
:103BF0008EE70000AC01002070B50546114804684E
:103C000011E0204600F0D4FC00280BD02846FCF739
:103C1000BBFA0146A068626801400240914201D1AE
:103C2000204670BD2468002CEBD1074C206800288A
:103C300005D000F0BDFC002801D0206870BD002038
:103C400070BD0000E0000020E4000020F8B504464C
:103C50002546062020352249A8720A6A0020261827
:103C6000135C2036401CC0B2F3720628F7D31E4FF7
:103C70001C480F6388633846203848631B48C86374
:103C80001B4900260E601B4A3046127804E0830070
:103C90005B185E60401CC0B29042F8D3002004E084
:103CA00083005B18DF60401CC0B29042F8D310481C
:103CB000C421C438FCF747FA0D4801214438016497
:103CC0000D49218533216974806B0C49098848436B
:103CD000044940180A4988810A480660F8BD000076
:103CE00040010020B03B0020B06C0020703B002061
:103CF000A8730020BB000020DC0500001C6C002025
:103D000000900040C8000020F8B50027304880210E
:103D10003D4601602F4C606B621A80008018C06BBA
:103D2000636B80B29B009B189B6F636B9B00D258A8
:103D3000D2B20092264A803A1160009A022A19D122
:103D4000002817D0401C81B20322104600F0A8FCC6
:103D500005003AD0791E00F0BEFD2E467F1CFFB252
:103D6000052F01D90020F8BD7068FDF7F9F8366815
:103D7000002EF3D1164880210160E26B0023164823
:103D8000002A02D0009A022A0FD00278134E521C49
:103D9000D2B202703678B2420ED30370E06B401E8E
:103DA000E063E06B002805D006E00370E06B401E86
:103DB000E06301E0A06B6063054880380160002D7E
:103DC00003D00121284600F086FD2846F8BD0000FA
:103DD00080E100E06473002040010020BA00002070
:103DE000F3B5002581B02C46691E029800F073FDE2
:103DF00020481E4F016A1E4A1F4804E0641C94427A
:103E000006D8012904D00368002BF7D1029C0EE0EC
:103E1000002101600B20C043FEBD66896168A819BE
:103E200085B232463846FCF775F92468BF19002C74
:103E3000F3D1124A0D48136801219B009B18596069
:103E40001168491C116011680D4B1B78994201D310
:103E5000002111603C2D00D23C252946FDF7B0F829
:103E60000121029800F037FD0020FEBDB06C00205B
:103E7000FFFF0000D86B0020C8000020A8730020BE
:103E8000BB00002010B500F0A5F800F09BF9034836
:103E90008068002800D0804710BD0000C873002053
:103EA00010B5002207E00378891E1C02437889B20E
:103EB0002343D218801C0129F5D8002902D00078AC
:103EC00000021218100C91B24018010C02D0010C23
:103ED00080B2081880B2FFF767FA10BD30B504460B
:103EE000002505E07D20C00000F005F8681C85B2C3
:103EF000A542F7DB30BD10B500210AE0022201E047
:103F000000BF00BF1346541EA2B2002BF8D14B1CB9
:103F100099B28142F2DB10BD10210120FDF76EFB4A
:103F20000320FFF7DBFF03F04DFB00F0BBF903F0CC
:103F3000DBFA13A0FEF7DEFA134814490860FF20ED
:103F40000875084600F0F0F9114B124A12490F4863
:103F500000F0F4F911491248FCF7F5F80020114976
:103F60004883C875088309E0FDF7F4FEFCF76CFB95
:103F7000FCF79EFB002801D0FCF778FAF4E700007C
:103F800073746172740D0A000A1A00009C2A0020E2
:103F9000997000003D700000F56F00005E24000085
:103FA000BC010020FC25002010B500280FD00849D6
:103FB0004A6890420BD38A68904208D2002208389F
:103FC0000271CA68904200D2C86000F0F5FC10BDD2
:103FD000CC00002030B51049104A0868104CC01CB5
:103FE00080088000486013890125DB1C2340038082
:103FF0000023438003719368DB1C9B089B001B1804
:104000008B601D711589ED1C25401D801289D21C05
:1040100022405A80C86030BDCC0000201C6C0020BB
:10402000FCFF0000F0B500284AD02849C31C0B4013
:104030000C2B00D20C23264CA068C01C8508AD00B8
:104040009D4241D32348C6684268B11A89B2EC1A2E
:1040500038E050180579002D33D105886D1A083DD8
:104060009D422ED304881F46641A14370125083C4C
:10407000BC4215D3CB1808339CB2131900271F710B
:1040800007881F805980048005711988104B9B6830
:10409000DB1C9B089B00994203D0931CCC5200E090
:1040A00005710C49B0420AD18C68CB681D79002D8E
:1040B00005D0A34203D01B889B18CB60F6E70830DD
:1040C000F0BD515A8C42C4D80020F0BDFCFF000066
:1040D0001C6C0020CC000020F8B5324AC91C1140ED
:1040E0000C2900D20C21304A9268D21C920892000E
:1040F0008A4210D32D4B5C68A0420DD39A6890423F
:104100000AD20246083A131B15889BB2EE1A083EE3
:10411000B6B2B14201D90020F8BDB142FCD02D1990
:10412000AC462F79214DED68AE46204D6D68AD1C33
:10413000002F1BD00F461437B742EDD8591808315D
:104140008EB21A4FA119714500D2F96000240C718A
:1041500014880C804B801680134A09889268D21C00
:10416000920892009142D7D04E53F8BD5918664636
:104170000831368889B20096E64502D10B4E6718A1
:10418000F760641800262671009E26806380064B27
:1041900011809B682288DB1C9B089B009A42E4D01C
:1041A0005153F8BDFCFF00001C6C0020CC00002027
:1041B000002904D08200024883580B608150704768
:1041C0003C760020F0B50020401C80B20828FBD3CC
:1041D0000E490F4A8868C01C8408A40000200023F0
:1041E00086009351450007E09759276094510F6866
:1041F0007F5B3C195B1C9BB24F687F5B9F42F3D88F
:10420000401C80B20828EAD3F0BD000084010020E1
:104210003C760020082801D3002070470349820023
:1042200088580028F9D003688B5070473C760020EE
:1042300010B50E480078012813D10D480068401CC5
:104240000B490860084600680A4988420CDD0020D6
:1042500007490860054908700748007800F00EF823
:1042600002E000200249086010BD0000A00000200C
:10427000A4000020B80B00009000002010B50446F8
:10428000FF2C07D0FF200649087000212046FCF7CC
:104290002DFA10BDFF200249087000BFF9E70000A9
:1042A0009000002010B500240D48FCF7C1FF0C4B16
:1042B0000C4A0D490D48FCF797F90446002C08D02C
:1042C00021460BA0FEF716F90A20FFF707FEFDF7BF
:1042D0008DFA0720012181400B4A116000BF10BDFB
:1042E0007800002086000020820000207E00002050
:1042F0006D53746F7049664572726F723A20253043
:1043000032580D0A0000000000E100E00EB505483B
:10431000009040100190052002906846FCF764F878
:104320000EBD0000204E000070B50446257DFF2024
:10433000207528460021FCF7D9F970BDFFB58FB074
:1043400004460E4600273C216846FBF7FCFE206829
:104350000A90032007902046153002904320C000A9
:10436000039000BF04E000207900194A50547F1CDC
:10437000042FF8DB694620461430FCF7E1F90546C6
:10438000002D02D0284613B0F0BD2079012803D1BA
:10439000207D0121FCF7BAFB002E00D0A660119809
:1043A000002801D01198E0601298002801D01298DE
:1043B0002061207DFCF78EFA0546002D05D02946A8
:1043C00004A0FEF797F82846DDE70020DBE70000B1
:1043D000A800002043483537784E45545F536F633B
:1043E0006B65744C697374656E204552523A202592
:1043F0003032580D0A000000F8B505460C46164646
:1044000004203040002824D060003C49085C01288A
:104410001FD16100394A5054600011464018447061
:1044200000212046FCF746FB00900098002810D0A1
:104430006A46334829182046FCF774FA2869002890
:1044400007D061002D4A88182B692D496918009AF8
:10445000984708203040002822D03C20604329495A
:104460004018806A296888421AD14320C0006043FE
:104470002A46153281184322D2002046FCF7FAF86A
:10448000012061001D4A50546000114640184470DC
:10449000A868002804D062000B46D018A968884795
:1044A00010203040002814D060001449085C012816
:1044B0000FD100206100114A50546000114640188D
:1044C0004470E868002804D062000B46D018E96800
:1044D00088474020304000280FD000206100074A64
:1044E00050546000114640184470E868002804D019
:1044F00062000B46D018E9688847F8BDA800002084
:1045000075080000803A0020F8B504460E461746AC
:104510000097009D002C13D02078012810D10DE0C9
:10452000009560786A463146FCF7D0FA00982D1A5B
:1045300000983618002D00D000E000E0F0E705E01C
:10454000617803A0FDF7D6FF0520F8BD0020FCE749
:10455000636C69656E74206E6F20636F6E6E656349
:10456000742025640D0A0000F8B504460025089F54
:1045700006986560A56026462036E560757425625C
:104580000A4DE06128783075401C2870204627616C
:1045900000F013F8079920468847002801D0002032
:1045A000F8BD6868206020466C60F8BDDC00002023
:1045B0002030407CC007C00F704770B51D461646BE
:1045C000044600F01BF83146204600F059F8294611
:1045D000204600F007F870BD014988607047000070
:1045E000DC00002010B50446002904D00846FBF783
:1045F000CBFDE06010BD0020FBE70000F8B50546EC
:104600000F4600260846FBF7BFFD6968884228D0A0
:10461000194800680FE001686A6891420AD10121D7
:10462000C46800F0A9FB3146761C2046F6B2642926
:1046300001D902E0C0680028EDD1104804680EE0FE
:10464000002C0BD02068002808D06968884205D16A
:10465000002F0DD03846FBF797FD2060E468002C52
:10466000EED1002F06D03846FBF78EFD6860F8BD0E
:104670000020F2E70020F9E7FC000020F80000200D
:1046800010B50446002904D00846FBF77DFDA06064
:1046900010BD0020FBE700BA704740BA7047000029
:1046A000F8B5002516460F46002806D0012805D08B
:1046B000022804D0032878D102E0142514350E35E1
:1046C000002E49D0012E5FD0022E5DD0032E6CD17A
:1046D0000720FFF79FFD040067D0267300202060AD
:1046E00060191330B0436060314827814068ED1C89
:1046F0003930A908B0438900401AB84200D9384679
:1047000080B201216081E1813D1A00941DE0072003
:10471000FFF780FD00281BD0067300214173016064
:104720000099AAB208602249028149683931890892
:1047300089008A4200D2294689B20246418110325C
:1047400042600122C2816D1A0090002DDFDC26E05C
:10475000204600F09EF828E0284613308108F81C17
:10476000800889008000081880B2FFF75BFC040015
:104770001BD060191330800880006060278167813A
:104780000020206020730AE00620FFF743FD0400AC
:104790000BD0002060602781678120602673012094
:1047A000E081002060732046F8BD0020F8BD0000C5
:1047B0001C6C002010B500280FD000290DD004E09B
:1047C00003890C891B19038110460268002AF7D15E
:1047D00002890B89D2180281016010BD10B50C4608
:1047E000FFF7E8FF204600F0D2F810BD002102E0FC
:1047F000491C0068C9B20028FAD108467047F8B5CC
:1048000000270C4605463E46002805D0002C03D064
:1048100028892189884202D20920C043F8BD6889CD
:10482000C11B6089801B814201DB80B200E088B23D
:1048300000906068009A81196868C019FBF76AFCEB
:104840000098381887B20098301886B26889B84244
:1048500001D12D6800276089B04201D82468002664
:10486000002C06D060892189884202D12068002866
:1048700008D1002D09D068892989884205D1286886
:10488000002802D00820C043F8BD002CC7D100206A
:10489000F8BD70B5002815D00024C189491E09044F
:1048A000090CC1810DD1017B056803290BD00129B9
:1048B0000CD002290AD0FFF777FB641CE4B2280071
:1048C000EBD1204670BD0146072001E001460620DD
:1048D000FFF76EFCF1E710B5002909D0002807D0DA
:1048E000002907DA4A4293B242899A4224D302E06D
:1048F000002010BD8BB2027B4468002A06D0032A38
:1049000004D0022A0AD0012A08D015E0621A034610
:10491000103342609A4208D244600DE000290BDA5D
:1049200042899A4208D3621A4260428952184281EF
:10493000028951180181DBE7012010BD70B50289A1
:104940008A4223D98A1A0D46044605E0281A85B200
:1049500020898018208124686089A842F6D3207BB2
:1049600000280AD16089A84207D0A088001B4019FE
:1049700081B22046FFF7B0FB04466581258120689F
:10498000002801D0FFF785FF0020206070BD0028BF
:1049900002D0C189491CC18170470000C107044889
:1049A00003D0FF211F31416270470249FBE700003D
:1049B000009000401E01040030B5134902884B6886
:1049C000D2189C1C90420ED01579002D0BD18D6809
:1049D000AA4208D0CD68954200D1C86015880580EC
:1049E0001288C51A15534288D21882420BD0157905
:1049F000002D08D1CD68854200D1CA6001881180A0
:104A00000088D11A015330BDCC00002010B50446F7
:104A1000002905D00846FBF7B7FB2060002010BD39
:104A20000020FAE710B50446002905D00846FBF738
:104A3000ABFB6060002010BD0020FAE7F3B583B047
:104A40000020009003984668707A317A000208438B
:104A5000FFF723FEC0B201901448002504681FE050
:104A6000217C0198814216D16769002F13D033460B
:104A70000C33A0692146039AB84700280BD00020C8
:104A8000039001200090002D05D0E068E860074801
:104A90000168E160046025460098E468002801D1BF
:104AA000002CDDD1009805B0F0BD00008001002091
:104AB00070B505460020FFF7ADFB040009D01C21AE
:104AC000FBF741FB25748020E07203480168E16038
:104AD0000460204670BD00008001002082614161B9
:104AE0007047000010B50B490A6882420AD1D268AB
:104AF0000A6009E0D168002903D0814201D1C16870
:104B0000D1600A46002AF5D101460020FFF750FB8C
:104B100010BD00008001002010B5021D00F001F85A
:104B200010BDF7B50E46044684B014213046FFF799
:104B3000D2FE0027FF4300280AD0002211460120A0
:104B4000FFF7AEFD05000BD03146FFF747FE0AE048
:104B500013213546C9433046FFF7BDFE002802D079
:104B6000384607B0F0BD0698FFF746F8002817D082
:104B7000002C1DD0216800291AD02146227CA37A5E
:104B8000019202900093E37A2846069AFEF7AEFF60
:104B90000446B54202D02846FFF77BFE2046E0E7F8
:104BA000B54202D02846FFF774FE0320C043D8E781
:104BB000011DE3E700B50246002A02D11E20C043D2
:104BC00000BD91685068884201D10020F8E79168E3
:104BD0005068884203D251689068401AF0E7104646
:104BE00000F015F893685168C91A401AE8E730B523
:104BF0000446002C02D12820C04330BD204600F0DE
:104C000006F805462046FFF7D5FF281AF5E70146C6
:104C1000002902D13220C04370470868FCE7002811
:104C200000D170470260C160C3684360C36883609D
:104C300000BFF6E7F8B504460F4616460025002CDF
:104C400002D11420C043F8BD002F02D11520C0436B
:104C5000F9E7A1686068884214D22046FFF7AAFFEE
:104C6000B04201D9304602E02046FFF7A3FF0546D7
:104C70002A4638466168FBF74DFA60684019606063
:104C80002846E0E72046FFF7C2FFE2686168891A1C
:104C9000401AB0420AD935462A4638466168FBF7C1
:104CA00039FA6068401960602846CCE72046FFF773
:104CB000AEFFE2686168891A451A2A46384661687B
:104CC000FBF728FAE0686060721B79192046FFF74D
:104CD000B1FF45192846B6E7F8B504460F46154614
:104CE0000026002C02D10A20C043F8BD002F02D1BB
:104CF0000B20C043F9E72046FFF779FFA84202D80E
:104D00000C20C043F1E7A168606888422AD8204699
:104D1000FFF77DFFE268A168891A461AB54213D8E9
:104D20002A463946A068FBF7F5F9A0684019A0604B
:104D30002046FFF76CFFE1684018A168884201D166
:104D4000E068A0602846D0E732463946A068FBF705
:104D5000E1F9E068A060AA1BB9192046FFF7BCFF83
:104D60008019C2E72A463946A068FBF7D3F9A06844
:104D70004019A0602846B8E7F3B50446007C87B028
:104D80000A283ED0A06D0390606A0290002C42D0A9
:104D900020680490201D00D060680590942005597B
:104DA000278B268C606900902046FCF761FB21462A
:104DB0001A4801F075F9A06F002801D002F023F81D
:104DC000606F002801D002F01EF8E06F002801D0CB
:104DD00002F019F821460220FFF7EAF9002D03D06E
:104DE0000421C9430098A8470898002807D005ABBC
:104DF00004AA009701960299039801F071FF09B087
:104E0000F0BD06482146001D01F04AF92146022066
:104E1000FFF7CEF9F3E700200490BDE7FC00002087
:104E2000C16170470420C04370470000F8B50746D1
:104E30000220FFF7EFF93E4C3E4D060040D1287CA2
:104E4000400701D40020F8BD00210846A668A269E9
:104E500006E0136BF31A8B4201D319461046D26851
:104E6000002AF6D1002802D00121FFF785FF022099
:104E7000FFF7D0F9060023D17F1E7F208446002053
:104E80006269A168FEB2864600910DE0517CB14294
:104E900009D8614507D8176B009BDB1B734502D30C
:104EA0009E4610468C46D268002AEFD1002802D0D8
:104EB0000121FFF761FF0220FFF7ACF9060035D0B2
:104EC000AC21FBF740F940207074C1013018C18556
:104ED00000230386A98831857185B3728021F17220
:104EE00043226968D200914200D9114631870621D8
:104EF00001818380C180C91FF1860121418200F0B8
:104F000039FE7066B065F064B066A0683063342026
:104F10008355304608498030816008490A688261BB
:104F20004A68C26189680162A92083553046F8BD8C
:104F3000E80000201C6C00207F6B0000306C00201B
:104F400041617047F7B50746007C82B014460028DF
:104F500003D00C20C04305B0F0BD002C02D100F0FE
:104F6000DBFD04463548056811E0288BA0420DD1D1
:104F7000002D4BD02E68002E48D00398002845D035
:104F8000FBF702F9002841D0B0423FD0ED68002D78
:104F9000EBD12A4D103D6E6913E0308BA0420FD14A
:104FA000002E33D03068009000282FD003980028BE
:104FB0002CD0FBF7E9F8002828D00099884225D0AA
:104FC000F668002EE9D1EE6813E0308BA0420FD1D5
:104FD000002E1BD030680090002817D003980028BE
:104FE00014D0FBF7D1F8002810D0009988420DD0DA
:104FF000F668002EE9D1AE690CE0308BA04208D1F2
:105000000398FBF7C1F83168884202D10A20C043F7
:10501000A1E7F668002EF0D10398002808D0FBF72E
:10502000B3F8002804D0042238460399FBF772F83D
:105030003C83E868F8600020EF608CE7F80000200F
:1050400070B50546007C05260300FDF763FA0805E8
:105050001D2B35354A4A3D4A2846FCF709FA2448B3
:105060000024C168A94201D1C96807E0C1610029D3
:1050700005D0C968A942F9D1E968C069C1600020BA
:10508000E860294602200AE000242846FCF7F0F9EF
:1050900017482946103001F003F829460320FFF78E
:1050A00087F823E000242846FCF7E2F91048294657
:1050B000143000F0F5FFE4E70121284601F054FF29
:1050C000040009D12E7407E00121284601F04CFFAD
:1050D000040001D109202874002D07D0002C02D033
:1050E00004E0002402E0284600F0A6FD204670BD42
:1050F000E800002010B504460846FEF77DFD0028B4
:1051000008D0008D002805D0283880B2844200D213
:1051100020460446204610BDFFB58FB0119919985E
:105120000143129880070143EE4877D01199002976
:1051300002D11099002971D10F9811994030069031
:10514000C28D0F9820300D908A4205D28178802040
:1051500001430D98817050E11098029019980991BF
:10516000C00701D0042100E000211998800701D573
:105170000C2000E00020081807900F98876E069812
:10518000008E0590D84841680120C003FAF798FFC7
:1051900001460598814202D9D449884201D90D9827
:1051A000D4E7002603960F98018F0798081A0999EB
:1051B000884200DB084680B200900420FFF72AF8FE
:1051C00004006ED0002525606560002E27D003986E
:1051D000046018980394C00723D007990098002210
:1051E000401881B21046FFF75BFA60600028E8D0F3
:1051F000FFF7FCFA01460598081880B20590109850
:10520000002807D06068009A41680798081802993A
:10521000FAF780FF60684068A06026E0EFE006468D
:10522000D7E7002210460799FFF73AFA6060002896
:10523000C7D0FFF7DBFA01460598081880B2059041
:105240000998002811D0012203200099FFF728FABD
:10525000010021D00598401C80B20590029848605A
:105260000298A0606068FFF7A5FA9F484168012096
:10527000C003FAF725FF01460598814211D3014684
:105280009A4881420DD80098A08114216068FFF7E8
:1052900022FB002805D105E06068FFF7FAFA00203C
:1052A00060609FE06068406820610F98008BFEF7A7
:1052B0007BF821690870000A48700F98008CFEF78F
:1052C00073F821698870000AC8703846FEF76AF8DA
:1052D0002169091DFAF762FF2069290A8574C174E2
:1052E00082483C38FEF760F822690546517B127B04
:1052F000090211430D401298FEF756F80543206944
:10530000290A057341731998A0732169487B097BA9
:1053100000020843FFF7C1F90799052289088006B2
:1053200009031203800E89180843FEF73DF821692E
:105330000873000A4873009909987F18401A80B2D0
:1053400009900298401802900998002800D02AE796
:105350000F98456F002D72D000E0054628680028A0
:10536000FBD1002D6BD02969487B097B00020843E3
:10537000FFF793F9800700D00120A989C84277D0B0
:105380002969487B097B00020843FFF786F98007FB
:105390006ED11298800702D01298012868D1A8898E
:1053A000B18941180F98008F814261D8A87BB17BE9
:1053B00088425DD12869001DFAF7E6FEFFF76BF918
:1053C000A98947183069001DFAF7DEFEFFF763F977
:1053D00087424DD10799706814314942FFF77BFA33
:1053E00000280ED00D988178802001430D98002E62
:1053F000817002D0304601F006FD0020C04313B09A
:10540000F0BD70684189002909D1016871600021EF
:1054100001600599491E89B20591FFF73AFA129881
:10542000C0070DD00120FDF7BFFF29694A7B0B7B28
:1054300012021A4310430873000A48730AE014E08A
:1054400071686868FFF7B6F9A889B1894018A88122
:1054500030682860B44202D1A8892C4600903146B9
:105460000420FEF7A5FE04E002E00F98466700E086
:105470002E601298800703D01198401C80B21190C2
:105480001298C00705D00D982021807808430D9907
:1054900088700F98816E119809180F988166069888
:1054A000C18D1198081A0699002CC885069905988F
:1054B000088614D00098002811D0206900280ED04A
:1054C000189880070BD40820FDF76EFF21694A7BEE
:1054D0000B7B12021A4310430873000A4873002022
:1054E0008DE70000F6FFFFFF1C6C0020FCFF0000B2
:1054F0008030416170470000F8B5184800264469C3
:1055000028E0254680352A68002A0FD0AF68002F92
:1055100004D0002321466069B84704E000232146F7
:10552000184601F02CFB002800D12860761CF6B24A
:10553000642E11D825462035A878C10709D002214C
:105540000843A870204600F077FBA8788008800008
:10555000A870E468002CD4D1F8BD0000E800002059
:10556000F0B50746ED4D87B040680C46A86041781D
:10557000027808021043FFF790F80005000F7968E1
:10558000800040186860A9684878097800020843DC
:10559000FFF783F80005000F800041423846FFF70F
:1055A0009AF900287ED1388914287BD3A86821462F
:1055B0001030FEF791F80028F4D1A8681030FAF7FF
:1055C000E3FD04460F200007FFF765F804400720BD
:1055D0004007FFF760F8844264D038890090AA68D9
:1055E0000623114638460C311032FEF739F80028F0
:1055F000D8D16868417B027B08021043FFF74DF861
:10560000000B800041423846FFF765F90028C9D1F8
:1056100069684878097800020843FFF73EF80146B8
:1056200068680170090A4170C178827808021043E5
:10563000FFF733F8014668688170090AC170001DE0
:10564000FAF7A2FDFFF727F869680C46091DFAF77B
:10565000A5FDE86020460830FAF796FDFFF71BF835
:1056600069680C460831FAF799FD2861E07BA17B57
:1056700000020843FFF711F8014668688173090AC0
:10568000C173417B027B08021043FFF706F88006D6
:10569000800E28703989800700D0012008186880A2
:1056A000002600E0B8E09E4804689C4801948068A9
:1056B00001460C31103004909848069145683EE050
:1056C00068782A78218C00021043814235D1E8782D
:1056D000AA78218B0002104381422ED10698FAF756
:1056E00053FD6168884228D10498FAF74DFD21687E
:1056F000884222D1002E05D0E068F06088480199E8
:10570000E1600460002C1CD08649002008603A89C2
:105710008A817A684F608A60804A0D6150612646AE
:10572000507080363268002A7BD0B568002D7AD060
:10573000002321466069A8477AE02646E468002CE9
:10574000BED1794804681EE068782A78218C00026E
:105750001043814216D1E878AA78218B00021043C9
:1057600081420FD10698FAF70FFD6168884209D18E
:105770000498FAF709FD2168884203D1204601F018
:10578000D3FD49E0E468002CDED1684800260468B7
:10579000009421E0002C0AD020680690002806D052
:1057A0000498FAF7F1FC01460698814212D1E87894
:1057B000AA78218B0002104381420BD1002E05D024
:1057C000E068F06059480099E1600460204600F00C
:1057D000DDF821E02646E468002CDBD1687B297BDC
:1057E00000024E4C0843FEF758FF400714D461688E
:1057F00048780A7800021043CA788B78110219435E
:1058000000910190A3686188E0681A46411810323F
:105810000C33206901F064FA3846FFF73AF807B014
:10582000F0BD08E0FFE700232146184601F0A7F984
:105830000028F1D13060394D2046AC6100F064FCA5
:10584000401D61D0687801071BD505A92046FAF7ED
:105850003DFD012802D1207C022855D02046FBF7CF
:1058600007FE7269002A03D00521C9436069904789
:1058700021462B4800F014FC21460220FEF798FC3C
:1058800042E0C00603D52046FBF7F2FDF0E76C20AE
:10589000025B002A05D07368002B02D021466069A4
:1058A00098476A69002A17D02878000703D5507BEB
:1058B000012108435073B768002F04D0002321460C
:1058C0006069B84704E000232146184601F057F903
:1058D000002801D06869306068782F4680060ED5B0
:1058E000B668002E05D000231A4621466069B047ED
:1058F00005E000231A462146184601F040F9002031
:10590000B861204600F098F90026064CAE61606848
:10591000002884D0FEF7BDFF666080E7900100207C
:10592000FC0000205C76002000010020F800002030
:105930007CB50446002214210120FEF7B1FE0500CB
:1059400022D0A06D401EFDF72DFD03460022294602
:10595000204600F0E5FA0646288900900623221D1D
:1059600021462846FDF77CFE3074000A707406213B
:10597000002001910090E37A221D21462846FEF77F
:105980009BF82846FEF785FF7CBD0000FEB53C4D28
:1059900006462878C10616D5696848780A78000254
:1059A0001043CA788B7811021943009101906988DD
:1059B000E868AB68411828691A46401C10320C335D
:1059C00001F08EF959E0800757D5707CFFF72EFA69
:1059D00004004BD0AF683846103001D0FAF7D4FB42
:1059E0002060308B208338460C3001D0FAF7CCFB96
:1059F00060606A68507811780002084320840320B0
:105A00002074E868411C6162E162D17B937B0A02E9
:105A100021461A4340318A838A82401E206670697B
:105A20006061F069E0613089FF219A31084020818E
:105A300014480168E1600460204600F0C9FA208F34
:105A4000211DFFF757FB208700200121019102460D
:105A50000090014612232046FFF75EFB050008D0A8
:105A600000212046FFF788F92846FEBD0020C043EC
:105A7000FEBD204600F0E0F8FEBD0020FEBD0000A7
:105A800090010020FC00002070B50446007C002836
:105A900001D0002070BD0320FEF7BCFB051EF9D02D
:105AA00060696861208B2883012028742089022185
:105AB00008432881E07AE872A07AA872002C07D007
:105AC000206828600F48C168A14203D1C96809E075
:105AD0000020F6E7C161002905D0C968A142F9D1CB
