:020000040000FA
:1000000000800020A500000071150000AF00000076
:1000100000000000000000000000000000000000E0
:10002000000000000000000000000000AF00000021
:100030000000000000000000B1000000711F00007F
:10004000B51F0000B5000000B5000000B5000000BD
:10005000B5000000B5000000B50000001D10000054
:10006000B5000000B5000000B1200000A52100008F
:10007000B5000000B5000000B5000000B5000000AC
:10008000B50000009522000039240000B5000000F2
:100090000348854600F0BCF800480047753F000063
:1000A000008000200448804704480047FEE7FEE740
:1000B000FEE7FEE7FEE70000891F00009100000058
:1000C00030B50B46014600202022012409E00D46F0
:1000D000D5409D4205D31D469540491B2546954078
:1000E00040191546521E002DF1DC30BD70B50024BC
:1000F0002546002801DA01244042002901DA0125C1
:100100004942FFF7DDFFAC4200D04042002C00D056
:10011000494270BD03460B439B0703D009E008C961
:10012000121F08C0042AFAD203E00B780370401CA7
:10013000491C521EF9D27047D2B201E00270401C35
:10014000491EFBD270470022F6E710B513460A4657
:1001500004461946FFF7F0FF204610BD30B50446AF
:100160000020034600E05B1C934203D2E05CCD5CC0
:10017000401BF8D030BD03460A780270401C491C71
:10018000002AF9D1184670470321001D401E03784C
:1001900012021A43491EF9D510467047034603223E
:1001A0000870000A491C521EFAD518467047F0B56F
:1001B0001FB40646002082B00546402401910090FD
:1001C0001BE0019922460F46304600F043F8049A9E
:1001D000059B801A994110D310461946224600F01B
:1001E00029F8361A8F410197224601200021009FED
:1001F00000F020F838184D4100902046641E002879
:10020000DFDC019B00982946324607B0F0BD0000B4
:10021000064C0125064E05E0E36807CC2B430C3C59
:1002200098471034B442F7D3FFF736FF087B00003D
:10023000287B000010B5202A04DB0146203A9140BB
:10024000002010BD914020239C1A0346E34019432F
:10025000904010BD10B5202A04DB0846203AD0405B
:10026000002110BD0B46D340D0402024A21A91405B
:100270000843194610BD70B58C180578401C6B07F3
:100280005B0F01D10378401C2A1106D10278401C73
:1002900003E006780E70401C491C5B1EF9D12B0749
:1002A00005D40023521E0DD40B70491CFAE70378C5
:1002B000401CCB1A921C03E01D780D70491C5B1C7E
:1002C000521EF9D5A142D8D3002070BD30B5174BCE
:1002D0000022154C5B790DE03C2555432D192D6B03
:1002E000854205D1002803D0002914D00A7012E0FD
:1002F000521CD2B29A42EFD3002210E03C25554363
:100300002D196D6B854208D1002806D0002902D036
:1003100080200243EAE7012030BD521CD2B29A424B
:10032000ECD3002030BD0000A01400208800002085
:1003300070B500240A4D0B4E0DE03C20604340197F
:10034000016A052905D18169002902D0042100F044
:1003500017FC641CE4B270798442EED370BD0000D7
:10036000A014002088000020F0B51A480222816BFA
:100370008B0001468039CA50174FFA89836B9B0066
:100380005B18DA63826B154B856B1C68144B6243F8
:10039000D218AD006D18AA67C26B521CC263826B83
:1003A000521C8263856B0F4A1278954201D3002557
:1003B0008563866B0125B6008D51816B6143C91839
:1003C000B9810564C16B5300D318994200D9C26347
:1003D000F0BD0000844D0020009000403C4600200D
:1003E000D01500208A000020034902680A60426894
:1003F0004A6080688860704750460020064902685D
:100400000A6042684A6082688A60C268CA6000699D
:1004100008610020704700003C46002010B500F045
:1004200001FE10BD00B500F043F9024A0021D1627F
:1004300000BD0000F84500200148008CC0B27047A4
:10044000F845002006494979884201D300207047C9
:100450003C214143034A0023505C53507047000045
:1004600088000020A01400200120704770B5FFF71D
:10047000D9FF064604203040002802D0FFF7DCFFF9
:10048000044610203040002810D000240CE0204604
:10049000FFF7D8FF0546002D04D02A462146044820
:1004A00003F0D2FF601CC4B2042CF0DB70BD00006E
:1004B00018060020F8B50F4604463F493F481E463F
:1004C000154681420ED83E4981420BD83D498142B2
:1004D00008D83D49814205D83C49814202D83C496F
:1004E000814201D9FB20F8BD44213A48FFF72BFE99
:1004F00018213948FFF727FE042221463548FFF727
:1005000009FE344C04223946201DFFF703FE204625
:10051000062231460C30FFF7FDFD002D2CD0204681
:10052000042229460830FFF7F5FD2C4D3222A86839
:100530000127C106C90E6971C105090FA970C1045F
:10054000090FE9708104C90F29714103C90EA16126
:100550000102C90E5143E161C101C90F002902D056
:10056000216C394321648001C00F03D0206C02212B
:100570000843206400260BE0FF206072A072002078
:100580002072D2E73146002000F01EFB761CF6B246
:1005900068798642F6D300F0EDFE01F0A5FA0D4829
:1005A0000F495830676201600E494160092181603E
:1005B0002F700020F8BD00009015002000000120E1
:1005C000D0150020A0140020301F00204C33002044
:1005D00058450020F8450020604600208800002093
:1005E000204E0000983A0000F0B587B004460D4652
:1005F00016461F46FFF738FF012802D0FC2007B03F
:10060000F0BD0E480E4908604B20C0000190432009
:10061000C00002900B4803900A2004902B20059004
:1006200001A8FFF7EBFE3B46324629462046FFF77E
:1006300041FF069003F092FE0698E0E784245502FD
:1006400090000020F811000010B50848808CC00709
:100650000AD001F05DF901F015F9054802F006FE37
:1006600000F09AFEFFF764FE10BD0000F845002080
:100670007846002010B50C4B5B79984213D23C238E
:1006800058430A4B0024C318996019619C61DA60D1
:100690005961D869032806D1186B002803D09989BD
:1006A00089B206F0E8F910BD88000020A0140020EF
:1006B00010B50B4900204A790A490B4B0BE03C244A
:1006C00044431C59002C04D0C86A10221043C8624D
:1006D00003E0401CC0B29042F1D3888DC0B210BD7F
:1006E00088000020F8450020A01400203C22124B76
:1006F0004243D21810B5114B5B79984201D31A20AE
:1007000010BD136A052B01D0172010BDD269022A33
:1007100005D0032A06D0002A07D0F72010BD00F02C
:1007200081FB04E000F054FB01E000F039FB40B233
:1007300000F0CCFC10BD0000A014002088000020B8
:10074000F8B50C46002101700D465A49497908E078
:100750003C22594B6A43D218126A002A03D06D1CFE
:10076000EDB28D42F4D38D4201D32020F8BD057047
:10077000E069002805D002281FD0032869D0212075
:10078000F8BD208DC0B204F0BBF9060075D04B480F
:10079000694600680090304604F060F9E06A009015
:1007A0006946304604F066F93C20434968434218E4
:1007B0004349304604F0BAF93FE007F047F8060035
:1007C00075D0E06A00900F20000703F08CFF074609
:1007D000009907200F40400703F085FF874205D0AE
:1007E0003849684602F0A6FF002806D0208D364919
:1007F00082B2304606F086FE12E030486946006854
:100800000090208D82B2304606F07CFE002809D18F
:10081000E06A0090A08C694682B2304606F0C0FEC5
:10082000002802D000F052FCF8BD3C202249684369
:1008300042182649304607F016F805202663206244
:100840006946204802F06EFC2946204600F0BCF9BB
:100850002BE005F0A1F8060029D018486946006889
:100860000090208D82B2304604F0B2FA070005D025
:10087000304604F02BFB3846D4E718E03C200E4904
:1008800068434118304604F0A1FA1149304604F09B
:1008900075FD26630520666320622946204600F028
:1008A00093F96946074802F03DFC0020F8BD11208D
:1008B000F8BD000088000020A0140020F8450020AA
:1008C0007D1B0000784600207B7A0000F91D0000A7
:1008D000050D000070B53C21484310494418206ABA
:1008E000256B052804D1606BA84203D0002D01D0F0
:1008F000172070BD002020632146284604F066FAC8
:10090000FF21284605F006F8002805D00449606359
:1009100004F0CCF9002070BD112070BDA01400209F
:10092000090D0000F7B582B0049900220D680A6035
:100930003C2148435D494618306A052802D01720FB
:1009400005B0F0BD002D17D07469B0680090F16853
:10095000401E0918B069A84200D205460398002835
:100960007AD067198F4209D2042D07D92A46214629
:10097000FFF7D0FB3C467FE01A20E1E74C48007CC3
:10098000800724D50F1B7F1CAF4200D32F46042FB6
:1009900005D93A4621460398FFF7BCFB04E0BAB2FA
:1009A0002146039800F0D8FD0398009CC019BD4271
:1009B00062D9EF1B042F04D93A462146FFF7AAFB60
:1009C00003E0BAB2214600F0C7FDE41954E000206C
:1009D0003EE0039A23781370039A641C521C8C42E5
:1009E00000D9009C401CA84246D223781370521CA8
:1009F000641C8C4200D9009C401CA8423CD2237845
:100A00001370521C641C8C4200D9009C401CA842EC
:100A100032D223781370521C641C8C4200D9009C83
:100A2000401CA84228D223781370521C641C8C42AC
:100A300000D9009C401CA8421ED223781370521C7F
:100A4000641C03928C4200D9009C401CA84213D223
:100A5000A842BED310E0FFE76019884203D2042DFC
:100A600001D9044608E0002004E0641C8C4200D94F
:100A7000009C401CA842F8D3049805607461B069DA
:100A8000411BB16102D1B06870613061F069032827
:100A900009D1B289306B511A89B24185F2688A4214
:100AA00001D105F0E8FF00204AE70000A014002073
:100AB0003C4600203C225043034A8018002901D0C4
:100AC00042690A6080697047A014002010B53C2379
:100AD0000D4C43431B191C6A052C03D000201060E9
:100AE000172010BDDB69002B05D0022B06D0032B8D
:100AF00007D0FA2010BD01F097F810BD01F0D8F929
:100B000010BD01F0F7F810BDA01400203C225043A6
:100B1000094A8218106B002802D0126A052A01D0F7
:100B20001720704708220129018903D091430181D0
:100B3000002070471143FAE7A014002000B50E49C9
:100B40000A6812180A600D4A1178002913D0D1885A
:100B5000081880B27D210901D08088420BD3002083
:100B6000D080FFF769FC012805D1507803F03EFFE3
:100B70005078401C507000BD1401002088000020F7
:100B800070B504780546082913D007DC01290BD07D
:100B900002290BD0042916D1042008E010290AD01C
:100BA000402910D1402002E0012000E0022004434F
:100BB00008E00820FBE710200443686B002801D000
:100BC00004F084F92C6070BD70B505463C204143AB
:100BD0000848081804463C21FFF7B5FA002D04D058
:100BE00020463C222946FFF795FAA0682061606103
:100BF00070BD0000A0140020FFB504690546C1685F
:100C0000601E83B0081800903C48C168491CC16050
:100C1000002C2FD00598002867D0008902900498F6
:100C2000FD22203081784908490011408170059EDD
:100C3000009872897768111981422FD93048007C59
:100C400080071BD500983946001B401C80B2024625
:100C500001902046FFF75EFA019872893918101A40
:100C6000AC6800282EDD87B23A462046FFF752FADC
:100C7000E41927E00020C04307B0F0BD002009E0E0
:100C8000397821700099641C7F1C8C4200D9AC68B3
:100C9000401C80B271898142F2D813E0042A06D93F
:100CA00039462046FFF736FA708904190AE0002019
:100CB00005E039782170401C641C80B27F1C71896A
:100CC0008142F6D83668002EB2D1A96902982C610B
:100CD0000818A861059803F004FEA889298B401A1A
:100CE00081B2049805F0C2FE01E0002B01D0002083
:100CF000C2E7049804F0EAF8BEE70000880000208C
:100D00003C4600207047000070B51F4A0D46014662
:100D1000537900201D4A07E03C244443A418246A68
:100D2000002C03D0401CC0B29842F5D3984202D3A5
:100D30000420C04370BD3C23584384186868E062B7
:100D4000288C25636062886AA0622146284604F0E8
:100D50003DF80F49284604F011FB0E49284605F0DE
:100D600051FE0D49284606F087F801220B49284616
:100D700005F00AF90320E0610520206208212046E1
:100D8000FFF7FEFE002070BD88000020A0140020A8
:100D9000050D0000F90B000005150000011500000D
:100DA0003C21484310B509494418206B002803D062
:100DB000216A052902D006E0172010BD03F0BAFE13
:100DC000002020632062002010BD0000A01400203D
:100DD000F8B50E463C214843114900254418606B84
:100DE0002F46002803D004F071F805462762206BD7
:100DF000002810D0002E04D0012E06D0022E06D0DE
:100E000008E004F063F8054604E0012100E0002159
:100E100003F0F8FE2762284600F058F9F8BD0000FC
:100E2000A01400203C21484310B509494418206B08
:100E3000002803D0216A052902D006E0172010BD42
:100E400006F014FD002020632062002010BD000089
:100E5000A014002070B53C4957220A70A8220A70DD
:100E6000394A403A537BDF2423405373D37BFD241C
:100E70002340D37300230B703449CB70CC78DB252F
:100E80002C43CC70CD7804242543CD70FF250D7103
:100E90004E79C0252E434E718E79360936018E71FA
:100EA0008E7926438E71CC792C43CC71CC79A406F3
:100EB000A40ECC710B764C7E01231C434C768C7EA9
:100EC000E406E40E8C768C7E20252C438C768C7E7A
:100ED00010252C438C768C7EFB252C408C768C7ECA
:100EE0001C438C76C8831A48184B447920331C72F3
:100EF00004795C72C4789C728478DC7244781C73C8
:100F000000785873508B4023184350831148114A7E
:100F1000806B803A80008018806F88810A4880301A
:100F200005680D490D4A098812880C4611430B4685
:100F30001D4305604169E4431443214041618168D8
:100F40001943816070BD00004010004000900040D7
:100F500048000020844D00205A0000205C00002042
:100F600070B51549CA6B002A09D04A6B0C4692002D
:100F7000803C1219956F928F93B2002205E00020F9
:100F800070BDAE5C8654521C92B29A42F9D3486B43
:100F9000002280002250486B401C4863042800D384
:100FA0004A630648C1784906490EC170C17880225B
:100FB0001143C170184670BD844D00200090004060
:100FC00030B5124A13689B009B18DC68002305E0CB
:100FD00005785B1C2570401C9BB2641C8B42F7D3C8
:100FE00001240B48802303600A484181116889006D
:100FF000891889890181C17908221143C171044886
:101000008038036004480460002030BDC84D0020D3
:1010100080E100E0009000409800002010B5FFF74C
:10102000FDF910BDF8B5234C2679700603D5FFF7FE
:101030009BF940202071300704D51F49002008602B
:1010400008202071F0062ED5012000F057FC1B4D22
:101050001B4F400710D5012000F034F9E86819490A
:10106000194A0988128811430843E860E07904218D
:101070000843E07102200FE0002000F023F9A86887
:101080001049114A0988128811430843A860E07981
:10109000FB210840E07101203862F86A042108430E
:1010A000F86210202071B00702D06079032020710F
:1010B000F8BD00000090004098000020C0100040E3
:1010C000F84500205A0000205C000020002805D0D0
:1010D000FF210131081A0249C0B2085C70470000C4
:1010E000507A000000B50B0001F04AFA0504122006
:1010F0002E384200204A526B82431F4B5A631A46D5
:10110000126B82431A631A46126A82431A6230E0F3
:10111000194A526B8243184B5A631A46126B0243A8
:101120001A631A46126A82431A6222E0124A526B0A
:101130000243114B5A631A46126B82431A631A46D2
:10114000126A82431A6214E00B4A526B82430A4BC2
:101150005A631A46126A02431A620AE0064A526B3E
:101160000243054B5A631A46126A02431A6200E0B0
:1011700000BF00BF00BD00008010004000B50B00A4
:1011800001F0FEF9050412202E384200204A52696F
:1011900082431F4B5A611A46126982431A611A46EA
:1011A000126882431A6030E0194A52698243184B30
:1011B0005A611A46126902431A611A46126882433A
:1011C0001A6022E0124A52690243114B5A611A46D0
:1011D000126982431A611A46126882431A6014E047
:1011E0000B4A526982430A4B5A611A4612680243FB
:1011F0001A600AE0064A52690243054B5A611A46D0
:10120000126802431A6000E000BF00BF00BD00008A
:10121000C0100040002805D0054A128B0A43044B39
:101220001A8304E0024A128B8A43014B1A837047E7
:1012300000100040054A002105E013780370521C9D
:10124000401C4B1CD9B20629F7DB70470806040086
:101250007CB505466846FFF7EDFF002406E06846CA
:10126000005D0521091B6854601CC4B2062CF6DB26
:101270007CBD000010B510480089C4B2C0202040D9
:10128000802801D10D4810BDC0202040402805D144
:10129000E106C90E0A48FEF729FFF4E7C020204006
:1012A000002805D1E106C90E0448FEF71FFFEAE752
:1012B0007D200002E7E70000001000400048E80140
:1012C00000389C1C70B5074C00252070A570E57097
:1012D000257105486571A11D0068FEF75FFF657007
:1012E00070BD0000DC4D00201401002070B51449D1
:1012F00005460878002816D00C46881DFEF744FFE6
:101300007D21281AC90088420CD9A11D2846FEF764
:1013100045FFE078A17800020843052808D900209D
:10132000FFF7D0FF70BD2846891DFEF737FF70BD5F
:10133000401CA070000AE07000F016FB70BD0000B9
:10134000DC4D002010B504460020FFF7BBFF074826
:10135000002C07D00121417005480222C16A1143C7
:10136000C16210BD0021417010BD0000DC4D0020A5
:10137000F845002010B50548FFF76CFD0449002032
:10138000086004490120086210BD00004F020000FF
:1013900098000020F8450020F8B5324C60680090B5
:1013A0003148016A01295CD00099A268C069891A94
:1013B0004008814215D30098A0602D4962782B48DF
:1013C0000988002A08D082680A4205D1002262708A
:1013D00082680A43826002E0C2680A43C26005F084
:1013E00033FF0098E168401A2249884203D30098ED
:1013F000E06001F0C3FE2048C16800290AD00099CE
:10140000E269891A7D22D200914203D30099E161F9
:1014100040688047194DFF262868F536002816D009
:1014200000982169401AB04205D3009820612869CC
:10143000002800D0804700986169401A104988420E
:1014400005D3009860616869002800D08047009843
:10145000A169401AB04201D90098A0610098FFF735
:1014600045FFF8BD10010020F8450020C0100040E5
:101470005C00002088130000E84D0020604600203A
:1014800060EA000001490120C8637047F845002068
:10149000F8B5064600256846057069463046FEF7F1
:1014A00015FF00280BD0684600781349020607D5BF
:1014B0004006400E3C225043401845630562F8BD8B
:1014C0003C22424354180D4949798842F7D2E069D9
:1014D0000328F4D1367C20463C21FEF734FE092E49
:1014E00008D00A2E06D040212046FFF749FB25638D
:1014F0002562F8BD1021F7E7A01400208800002025
:101500000020704738B5846B0022002C01D04B6F4F
:1015100004E0002038BD521C1B6892B2002BFAD1A7
:10152000896F02E0521C096892B20029FAD10023A7
:1015300000921A461946A047EBE7000010B5054C8B
:1015400023636263A1636061E06A01210843E06292
:1015500010BD0000F845002003E00B780370401C2C
:10156000491C1346521E92B2002BF6D17047000060
:1015700000202449897A0822114000290BD15721E3
:10158000204A40321170A82111701E49897A082220
:1015900011431C4A917257211A4A40321170A821F6
:1015A00011700521174A118116492031098803223B
:1015B00052029143134A203211801249897A102233
:1015C0001143104A917200210E4A4032117017E007
:1015D0000C4920318979C907C90F002901D00020A1
:1015E00000E0401C7D210901884209D95721054AA4
:1015F00040321170A82111700121917100211170E8
:10160000E6E7000000100040C206D20E0121914022
:10161000014A11607047000000E100E010B50028A9
:1016200019DA1A4A03071B0F083B9B089B00D25884
:101630008307DC0EFF23A3409A438B071B0E84070E
:10164000E40EA3401A43114B0407240F083CA408DE
:10165000A4001A5118E00E4A03231B02D218830873
:101660009B00D2588307DC0EFF23A3409A438B07CD
:101670001B0E8407E40EA3401A43054B03242402E7
:101680001B198408A4001A5110BD00001CED00E0D5
:1016900000E100E010B5002819DA1A4A03071B0F11
:1016A000083B9B089B00D2588307DC0EFF23A34016
:1016B0009A438B071B0E8407E40EA3401A43114B79
:1016C0000407240F083CA408A4001A5118E00E4A8D
:1016D00003231B02D21883089B00D2588307DC0E19
:1016E000FF23A3409A438B071B0E8407E40EA340FD
:1016F0001A43054B032424021B198408A4001A5121
:1017000010BD00001CED00E000E100E010B5002875
:1017100019DA1A4A03071B0F083B9B089B00D25893
:101720008307DC0EFF23A3409A438B071B0E84071D
:10173000E40EA3401A43114B0407240F083CA408ED
:10174000A4001A5118E00E4A03231B02D218830882
:101750009B00D2588307DC0EFF23A3409A438B07DC
:101760001B0E8407E40EA3401A43054B03242402F6
:101770001B198408A4001A5110BD00001CED00E0E4
:1017800000E100E0002823D15722254B1A70A8223F
:101790001A7080220A40002A07D0214A403AD27BA0
:1017A00002231A431E4B403BDA731D4A403A927A99
:1017B0001C230B409A431A4B403B9A72184A203A1A
:1017C000D27B8B079B0F9A43154B203BDA7322E0A9
:1017D0005722134B1A70A8221A7080220A40002A3E
:1017E00007D00F4A403AD27B02239A430C4B403B2E
:1017F000DA730B4A403A927A1C230B401A43084B87
:10180000403B9A72064A203AD27B8B079B0F1A43C1
:10181000034B203BDA730022014B1A707047000023
:101820004010004010B50446002C0BD1572014493D
:101830000870A8200870002011492039087110494B
:1018400008701BE057200E490870A820087001207E
:101850000B4920394871087100200949087001209E
:1018600002F077FB572006490870A82008700D2069
:1018700003492039087100200149087010BD00009B
:101880004010004010B5124C206C00281CD111A053
:1018900000F066FEA06B8100204680384158002988
:1018A00001D0002010BDA26B012192008150A06BDD
:1018B0000C4A128850430C4A82180C488281C27923
:1018C00004231A43C2712164206CC0B210BD000011
:1018D000844D002051756172794574685278446D69
:1018E000610D0A003C460020D01500200090004009
:1018F000014800797047000088000020C006C00E33
:101900002021084301490871088870472090004051
:10191000F8B50C4E0025B46911E02046FFF7B8FD7C
:10192000204604F0E1FAE068002D01D0E86000E014
:10193000B06121460220E76802F05EFC3C46002CC4
:10194000EBD1F8BDB8000020572006490870A82048
:1019500008700846807901210843024988710020F7
:10196000087070474010004038B5064C0020616890
:10197000009160606946204601F0D4FB00986060E9
:1019800038BD00007846002000B5030000F0F8FDE7
:101990000D081A2C37414C56606A75808B96A10051
:1019A00057214F4A1170A82111704D492039C97B28
:1019B000042291434A4A203AD173C821484A403A06
:1019C000118187E05721464A1170A82111704449BE
:1019D0002039C97B04221143414A203AD173C821DE
:1019E0003F4A403A118175E057213D4A1170A821C4
:1019F00011705121C9003A4A403A11816AE05721D9
:101A0000374A1170A82111703649354A403A118180
:101A100060E05721324A1170A8211170812189009C
:101A20002F4A403A118155E057212D4A1170A821C3
:101A3000117088212A4A403A11814BE05721284AE7
:101A40001170A82111700221254A403A118141E00C
:101A50005721234A1170A82111700421204A403ACD
:101A6000118137E057211E4A1170A821117093216E
:101A700089001B4A403A11812CE05721184A117005
:101A8000A821117017494D31154A403A118121E0C2
:101A90005721134A1170A821117095218900104A0D
:101AA000403A118116E057210D4A1170A82111709A
:101AB0004B21C9000A4A403A11810BE05721084ADC
:101AC0001170A821117007495C31054A403A118113
:101AD00000E000BF00BF0021014A117000BD0000FE
:101AE000401000400202000030B587B000251D4CB8
:101AF000039504951A48059520620C386062001D14
:101B0000A062001DE06202F0EBF9042203A8616A02
:101B1000FEF700FB042204A8E16AFEF7FBFA0422A8
:101B200005A8A16AFEF7F6FA06220F48216AFEF719
:101B3000F1FA0E4805600E4805600B482B3802F09C
:101B400073FD0C4802900C490748019105AB04AAAB
:101B5000009503A92B3802F02FFD07B030BD00001F
:101B60000446002010010020A3460020B000002001
:101B7000B4000020C531000029320000FFB504691F
:101B80000546C168601E81B00F18039800264068A2
:101B9000417802780802104302F0A7FD0005000F0B
:101BA00080004142039802F0BEFE002802D00020CF
:101BB00005B0F0BD0398002834D0002C0CD0E868A4
:101BC000002809D0039842894168931912199EB2DE
:101BD000BA4212D900220CE0039802F082FE21E002
:101BE0000B782370491C641CBC4200D9AC68521CA1
:101BF00092B243899342F3D80AE0002205E00B78C1
:101C0000521C2370491C92B2641C43899342F6D83B
:101C100000680028D7D1039802F063FEA8692C6100
:101C20008019A8610120C3E7F7B53C2148432F493B
:101C30000025146884B04018156016460290002CE8
:101C400014D00598002811D00298006B0390284802
:101C5000006C800700D4C7256D1CADB2C82D40D8DC
:101C6000B920C000844204D9009004E01A2007B0D3
:101C7000F0BD2046009481B20022104602F038FDEB
:101C8000070030D07868009A0599FEF743FA1849A2
:101C90000020C8633946039802F066FF0190384679
:101CA00002F01FFE1248C06B002802D101980028E4
:101CB0000DDA0020306040210298FEF761FF0198A4
:101CC000002802DAFFF702FAD1E7FA20CFE73168FD
:101CD0000098081830600099059840180590641A1B
:101CE000BAD10020C3E71120C1E70000A0140020F2
:101CF000F8450020F7B50025146882B017462E4637
:101D00001560002C15D00399002912D03C214843BE
:101D100037494018006B01903648006C800700D4AA
:101D2000C726761CB6B2C82E06D93868002850D10E
:101D300056E01A2005B0F0BD0198007C042801D0BF
:101D40001720F7E72B48006C800701D5FEF77CFCD5
:101D500001984030C08D0090002807D0254D4435B3
:101D6000287CC00704D10098844201D91120E1E702
:101D70000098844200D8009468680099884200D294
:101D80000090019803F09EFE1A484430007CC00782
:101D9000009802D082B2012301E082B200230399AD
:101DA000019805F07DFA050005D0681C01981BD04C
:101DB00003F088FE14E0019803F084FE05463968BC
:101DC0000098081838600099039840180390641A26
:101DD00001D10020AEE707484430007CC007A0D105
:101DE0002846FFF773F9A5E703F06CFEF3E7000060
:101DF000A0140020F8450020FFB505460469C0681E
:101E0000611E4718A96B002681B09446002902D0B4
:101E1000AC68611E4718110006D0002C01D00028C4
:101E200004D1084602F05DFD05B0F0BD4B8948685D
:101E30009A1996B21A19BA420ED9002308E002780C
:101E40002270401C641CBC4200D9AC685B1C9BB275
:101E50004A899A42F3D80AE0002305E002785B1C25
:101E60002270401C9BB2641C4A899A42F6D80968C9
:101E70000029DBD101200003864200D906466046D6
:101E800002F02FFDAF6B002F0DD00498FEF77CF908
:101E900000960146AB6828460A9AB8470020A86118
:101EA000A8682861C0E7A8692C618019A861BBE710
:101EB000F7B50025146884B016461560002C17D0BD
:101EC0000599002914D03C21484327494018006B4C
:101ED00002902648006C800700D4C7256D1CADB267
:101EE000C82D3CD817208001844204D3009004E020
:101EF0001A2007B0F0BD2046009481B2002210469F
:101F000002F0F6FB07002CD07868009A0599FEF7DE
:101F100001F916490020C8633946029805F0C0FC53
:101F20000190384602F0DDFC1048C06B002802D159
:101F30000198002809DA002030600198002802DAB0
:101F4000FFF7C4F8D5E7FA20D3E7316800980818FE
:101F500030600099059840180590641ABED10020A1
:101F6000C7E71120C5E70000A0140020F8450020B5
:101F700004480368406800215A1C484101490A602E
:101F8000486070472000002010B5572008490870AD
:101F9000A82008708820064940390881002004499B
:101FA00008700A2001F0D5FF0120FFF73BFC10BDAF
:101FB0004010004010B517488088002804D015480C
:101FC0008088401E134988801248C088002804D0A9
:101FD0001048C088401E0F49C8800E48008900285C
:101FE00004D00C480089401E0A4908810A488079BB
:101FF000C007C00F00280CD001200749887107488E
:102000000068401C054908600120FEF797FD02F0BA
:1020100033F910BD8C010020002000401C0000207E
:102020000349C8600221024A1170042111707047EF
:102030000020004070B50446FFF71CF90A21484310
:10204000C60821463046FEF73BF805460A21681DC2
:10205000FEF736F8054601498D8170BD003000401D
:1020600010B54B200002FFF7E5FF472004498870B8
:102070001B20C870402048700120887310BD0000EC
:102080000030004000280BD0084A52780A43074B22
:102090005A701A46127808231A43044B1A7004E047
:1020A000024A52788A43014B5A7070470030004010
:1020B00010B51B4800790007000F04280DD004DC80
:1020C000002829D0022828D121E0062802D00C2897
:1020D00023D10FE01248407920E01148047A1149D9
:1020E0004878214605F0EEF900200E4908700120DD
:1020F000C87013E00A48047A0A494878214605F076
:10210000E1F90020074908700120C87006E00221AB
:102110000020FFF7B7FF01E000E000BF00BF10BDE7
:10212000003000408C01002070B50446FFF7A2F893
:102130000A214843C60821463046FDF7C1FF05463F
:102140000A21681DFDF7BCFF054601498D8170BD60
:102150000034004010B54B200002FFF7E5FF472098
:10216000044988701B20C870402048700120887383
:1021700010BD00000034004000280BD0084A5278FF
:102180000A43074B5A701A46127808231A43044B25
:102190001A7004E0024A52788A43014B5A70704721
:1021A0000034004010B51A4800790007000F0428D9
:1021B0000DD004DC002827D0022826D11FE00628F5
:1021C00002D00C2821D10EE0114840791EE01048C1
:1021D000047A10494878214605F074F901200D4928
:1021E0000870C87012E00A48047A0A494878214603
:1021F00005F068F9012007490870C87006E002215F
:102200000020FFF7B9FF01E000E000BF00BF10BDF4
:10221000003400408C01002070B50446FFF72AF816
:102220000A214843C60821463046FDF749FF0546C6
:102230000A21681DFDF744FF054601498D8170BDE7
:102240000038004010B54B200002FFF7E5FF4720A3
:10225000044988701B20C870402048700120887392
:1022600010BD00000038004000280BD0084A52780A
:102270000A43074B5A701A46127808231A43044B34
:102280001A7004E0024A52788A43014B5A70704730
:102290000038004010B5424800790007000F0428BC
:1022A0000DD004DC002877D0022876D16FE0062814
:1022B00002D00C2871D121E0394840796EE03848CD
:1022C000047A3849487A097A0002084336490C549E
:1022D0003449487A097A00020843401C81B23148E7
:1022E0000172090A417231490878214605F0EAF87D
:1022F00002202E494870012088704FE02848047A57
:102300002849487A097A0002084327490C5425498C
:10231000487A097A00020843401C80B221490872B9
:10232000000A4872487A097A000208431E49891E49
:102330000870000A48701D48007804281AD10A461F
:10234000507812780002104303461948006840781C
:102350003C225043174A8018134A416A164804F039
:10236000A5FC00210F48017241720F48801E0170C8
:10237000417004E00D490878214605F0A3F80220D9
:102380000A4948700120887008E005E005E0022154
:102390000020FFF769FF01E000E000BF00BF10BDB3
:1023A000003800408A140020AA1000208C01002070
:1023B0000C000020A01400200800002070B5044686
:1023C000FEF758FF0A214843C60821463046FDF76C
:1023D00077FE05460A21681DFDF772FE0546014994
:1023E0008D8170BD003C004010B54B200002FFF70E
:1023F000E5FF4720044988701B20C87040204870C2
:102400000120887310BD0000003C004000280BD064
:10241000084A52780A43074B5A701A461278082322
:102420001A43044B1A7004E0024A52788A43014B63
:102430005A707047003C004010B5424800790007D0
:10244000000F04280DD004DC002877D0022876D1B4
:102450006FE0062802D00C2871D121E0394840797C
:102460006EE03848047A3849487A097A000208430D
:1024700036490C543449487A097A00020843401C12
:1024800081B231480172090A417231490878214606
:1024900005F018F803202E494870012088704FE09D
:1024A0002848047A2849487A097A000208432749CB
:1024B0000C542549487A097A00020843401C80B22E
:1024C00021490872000A4872487A097A00020843D2
:1024D0001E49891E0870000A48701D4800780428AB
:1024E0001AD10A4650781278000210430346194860
:1024F000006840783C225043174A8018134A416ACA
:10250000164804F0D3FB00210F48017241720F48B6
:10251000801E0170417004E00D490878214604F0E6
:10252000D1FF03200A4948700120887008E005E0C7
:1025300005E002210020FFF769FF01E000E000BF95
:1025400000BF10BD003C00408A140020AA100020EB
:102550008C0100200C000020A014002008000020A6
:102560000FB410B503A9044B044A029800F024F8F4
:1025700010BC08BC04B01847ED33000088010020EF
:1025800030B47446641E2578641CAB4200D21D46EC
:10259000635D5B00E31830BC184702E008C8121FF7
:1025A00008C1002AFAD170477047002001E001C13C
:1025B000121F002AFBD17047FFB591B00F460546A8
:1025C000002606E025280AD0149A139990476D1C1E
:1025D000761C28780028F5D1304615B0F0BD0024CF
:1025E00000940121F34A029400E004436D1C2B780F
:1025F0000846203B98401042F7D128782A280ED070
:10260000022128780246303A092A15D8009A0A236E
:102610005A43303A80180C436D1C0090F1E701CF0B
:102620000090002805DA012040030443009840424E
:102630000090022004436D1C28782E2815D1042018
:10264000044368786D1C2A280AD101CF6D1C0290C2
:102650000BE002990A225143303940186D1C029058
:102660002878014630390929F3D928786C2810D008
:1026700006DC4C281AD068280ED06A2817D104E04E
:10268000742813D07A2812D110E0012040050443A9
:102690000CE00121090501E0032109050C436978DB
:1026A000814203D10120000524186D1C6D1C28787F
:1026B00003906E281ED00CDC632831D004DC002887
:1026C0008AD0582811D1B2E064287BD069280CD177
:1026D00078E073282DD004DC6F2870D0702804D1E6
:1026E000A7E075286CD078286BD0149A139990477E
:1026F000761C62E06002400F022807D003280AD04F
:10270000042838680AD006603F1D56E03868F11783
:1027100006604160F8E738680680F5E70670F3E781
:102720003878694608740020487404A80390012092
:1027300003E0386803900020C0433F1D61070FD5B8
:10274000002101E00199491C029A0191914213DA9A
:102750008142F7DB019A0399895C0029F2D10BE0F1
:10276000002101E00199491C01918142FADB019AA3
:102770000399895C0029F5D101990098139A401AB0
:1027800000902146149B00F03BF9019980194618EE
:1027900007E0039803990078491C0391149A139950
:1027A00090470198401E0190401CF2D12146149B95
:1027B000139A009800F014F986196D1C09E741E09E
:1027C00033E034E00A200021049005916002410FBB
:1027D000022905D001CFC2179446032905D007E08E
:1027E000FF1DFF08FF0003CF06E000B2C2179446AA
:1027F000042902D140B2C1178C460022614694459B
:1028000006DA0A460021404291418C462D2102E021
:10281000210504D52B216A461176012103E0E10749
:1028200001D02021F7E7019154E00A200BE01020AD
:1028300009E01020049000210420044308200591A1
:10284000029003E008200021059104906002410FEE
:10285000022905D001CF00229446032906D006E0C4
:10286000FF1DFF08FF0003CF8C4603E080B2042960
:1028700000D1C0B20021019121072BD50399702905
:1028800006D0049A1021059B4A401A4305D00EE059
:1028900040216A461176012108E06146014306D0D5
:1028A00030216A4611760399517602210191049AEA
:1028B0000821059B4A401A430CD16146014301D1CE
:1028C000610707D530216A461176012101910299ED
:1028D000491E02910399582904D037A103910FA9E9
:1028E0000F910DE039A1F9E76146059B049AFDF7C8
:1028F0005EFC039B8C469B5C0F9A521E0F921370DA
:1029000061460143F0D10F9807A9081A20300390BF
:10291000600704D5012000048443029801E00120EF
:1029200002900399884201DD401A00E0002041181E
:102930000290019809180098401A0090E00306D40C
:102940002146149B139A009800F05AF8861900202B
:10295000049008E006A9085C149A1399904704981B
:10296000401C761C049001998842F3DBE0030CD5EF
:102970002146149B139A009800F042F8861904E04F
:10298000149A302013999047761C0299481E0290A1
:102990000029F5DC08E00F980F990078491C0F9189
:1029A000149A13999047761C0399481E03900029A6
:1029B000F1DCFBE60928010030313233343536379B
:1029C000383961626364656600000000303132337B
:1029D000343536373839414243444546000000001B
:1029E000F8B5044600251E461746880404D405E0C1
:1029F00039462020B0476D1C641EF9D52846F8BD25
:102A0000FFB50446002581B01E46C80301D5302716
:102A100000E02027880404D505E038460399B04734
:102A20006D1C641EF9D5284605B0F0BD70B50400D4
:102A30000ED0256A002D0BD0A87C082808D10846A6
:102A4000FDF7A2FBA96A884202D1204600F09CF85B
:102A500070BD0000F8B5050010D02C6A002C10D015
:102A60000022FF213531104601F042FE606100284E
:102A70000AD0E27C4249002A09D00BE00920C04379
:102A8000F8BD0820C043F8BD0020C043F8BD4A6827
:102A9000521C4A604968216041680120A1610870A8
:102AA000A16900264870A16906208870A069C670D7
:102AB000206800F0A5FCA169091DFDF76FFBA06966
:102AC000310A06724172A069310A8672C172A16927
:102AD00000200C31FDF762FBA07C0A2803D00528FA
:102AE00001D0042804D1A16968680C31FDF756FBB8
:102AF000A16900201031FDF751FBA16900201431BC
:102B0000FDF74CFBA16900201831FDF747FB0020C1
:102B1000294620318A7A824203D92A182032D27A71
:102B200000E0002207461C37A369401C80B2DA553A
:102B30001028EFD3002001462C31A269401C80B23E
:102B400056544028F7D3002001466C31A269401C3E
:102B500080B256548028F7D30A4800F051FCA1698E
:102B6000EC31FDF71BFBA68300200146A269F03182
:102B70005054401C80B24428F7D30020F8BD000018
:102B80008000002063538263F8B50546046A002084
:102B900000900C21204600F0EFF82846FFF75AFF7E
:102BA000060046D101223521204600F05AF80421C2
:102BB000204600F066F804223221204600F051F849
:102BC000A06A01F090FD0146204600F062F8042260
:102BD0003621204600F045F8606A01F084FD014688
:102BE000204600F056F807223D21204600F039F833
:102BF00029462B31204600F06DF8204600F0A4F85D
:102C0000A08BF03081B2606901F0C0FEA169A06ABA
:102C10000C31FDF7C3FA6F68009868600095432394
:102C2000074A6169606804F056FE28466F6000F04C
:102C300009F8E07C401CE0740420E0833046F8BDD5
:102C40007F7A000010B500280AD0046A002C07D053
:102C50006069002801D001F044FE00206061A0619D
:102C600010BD10B5838B8469E4185B1C8383E0344A
:102C70002174818B83695B18491C8183E0331A744A
:102C800010BD828B83699B18521C8283E0331974B8
:102C9000704710B5828B83690C0E9B18521C82837F
:102CA000E0331C74828B84690B0CA418521C828341
:102CB000E0342374828B84690B0AA418521C82832B
:102CC000E0342374828B83699B18521C8283E03327
:102CD000197410BD10B5828B836901249B18521C96
:102CE0008283E0331C74828B83690C789B18521C9E
:102CF0008283E0331C74828B83694C789B18521C4E
:102D00008283E0331C74828B83698C789B18521CFD
:102D10008283E0331C74828B8369CC789B18521CAD
:102D20008283E0331C74828B83690C799B18521C5C
:102D30008283E0331C744B79818B82695218491C61
:102D40008183E032137410BD002814D0818B826916
:102D5000FF235218491C8183E0321374002305E0DD
:102D600082695218491C8183E0321374818B442993
:102D7000F6D38A07F4D17047827C8A4202D08174EC
:102D80000021C17470470000F7B584B006007DD003
:102D9000069840892B287AD30698456801202C464E
:102DA0000F3400F02FFB617822780902114388422A
:102DB0007CD1414800F026FB01466079227900026F
:102DC0001043814272D10120C00200F01BFB01467A
:102DD000E078A27800021043814267D1374800F0C2
:102DE00011FBAA7B6B7B1102194388425ED12146FD
:102DF0000E31042202A80091FDF78CF9214618310A
:102E0000042203A80191FDF785F97068002805D018
:102E10000399814202D101273B4601E000273B464E
:102E20002246083202A9304604F0CAFDE079A179B1
:102E30000002084300F0E6FA012802D0022835D14A
:102E400026E0002F32D0022000F0DCFAA071000A48
:102E5000E071042200990198FDF75CF90422311D0C
:102E60000098FDF757F90621491EC9B26018027A89
:102E700082746B185A70059A0029525C0272059888
:102E8000405CD871F0D1B26906990DE011E00DE017
:102E900002A93046FFF7CAFD09480168002905D09C
:102EA000C268002A02D002A930469047069801F075
:102EB00018FD07B0F0BD0000040600000608000081
:102EC0006046002070B5050011D04C6820461B30CC
:102ED0000646FDF759F9A9686A6808400A40904219
:102EE00005D10023E21D3146284604F069FD70BD7E
:102EF000FEB50E46044615460F21304601F013FD7F
:102F0000002802D00120C043FEBD2146284600F023
:102F100011FC002801D0284B2FE02846FDF734F99A
:102F200007460F20000701F0DEFB0740072040079F
:102F300001F0D9FB874227D10121684601700021A9
:102F400041705E2181702846FDF71EF901F0CBFB30
:102F50004002410E6846C1702846FDF715F901F0A0
:102F6000C2FB010A684601712846FDF70DF901F020
:102F7000BAFB0146684641716B4622462B32314608
:102F8000204600F0E1F8FEBD2846FDF7FDF8A168F7
:102F9000626808400A40904204D0E068002807D0E8
:102FA00025460C3532462946204600F007F8FEBD7E
:102FB0000320C043FEBD0000837A0000F7B586B051
:102FC00006980D462B3000900020C0430190144617
:102FD0002846069900F0AEFB002827D12846FDF7C9
:102FE000D3F806460F20000701F07DFB06400720BE
:102FF000400701F078FB864218D0002D16D02846F5
:10300000FDF7C2F8002811D00121284600F066F92A
:1030100000280DDB144E070170683918887A0028E3
:1030200008D0012808D0002C06D00EE00920C043AB
:1030300009B0F0BD01208872FEF724FA29460698EF
:1030400000F070F80190002C0BD070683B18987A53
:10305000022806D121461B1D009A069800F074F83C
:1030600001900198E4E7000008010020FFB581B05D
:103070001F4600222B21032001F03AFB06004AD014
:1030800075680D982C460F3400F0BCF9A071000A49
:10309000E0710620401EC0B23A5C21180A720B9AF9
:1030A000125C8A7403990A5C29184A70029A0028F3
:1030B000125CCA71EED1204604220E300A99FDF747
:1030C00029F82046042218300C99FDF723F8012036
:1030D00000F098F92070000A60700120C00200F032
:1030E00091F9A070000AE0700C4800F08BF9207193
:1030F000000A60710A4800F085F96873000AA87335
:1031000001983146826990470446304601F0E9FB58
:10311000204605B0F0BD0020C043FAE704060000D9
:10312000060800001FB501230393064C021D034649
:10313000009202912B3301941946A21FFFF796FFCC
:1031400004B010BD897A0000F8B54D680E460746F8
:103150000624641EE4B22819195D4170115DC17125
:10316000002CF6D10120C00200F04CF96873000A6F
:10317000A873BA69314638469047F8BD30B50F4953
:1031800000200F4C4B6814E00101C918CA7A521C88
:10319000D2B2CA728D7A022D02D0012D03D006E080
:1031A000F02A02D203E0022A01D300228A72401CD4
:1031B000C0B2E1688142E7D830BD000008010020BC
:1031C0003C46002070B5044640680D46817B427B3A
:1031D0000802104300F016F90121C902401A04D078
:1031E000062816D00F49C8420AD121462846FFF7C3
:1031F00069FE0E21C943204601F095FB002803D04B
:10320000204601F06EFB0AE02946204600F05CFBF8
:1032100005E0294622462B312846FFF7B5FD002060
:1032200070BD00004F66FFFF10B5FFB081B00446CF
:1032300068460B496062FCF79EFF204665212030FE
:10324000E56181746E21C174064860610648A06121
:10325000204600F029FD7FB0002001B010BD000025
:10326000D04C0020F12E00003D3E000070B5054618
:103270001648C16B002927D0154A5178491C517056
:10328000144A80211160C06B134A0006000E1160C1
:103290001AD0284600F066FD040015D06068817BD6
:1032A000427B0802104300F0ADF80121C902401A28
:1032B00001D0062805D12A692946204690470028D2
:1032C00002D0204601F00DFB70BD0000844D0020AF
:1032D0001001002080E100E000E100E0F3B541488A
:1032E00087B0C76800247DB202943F4901950394DA
:1032F000009507984E6800284DD008460078059044
:10330000000104908019807A022844D10798FCF7C4
:103310003BFF0499715888423DD1059840B209B0ED
:10332000F0BDAF4204D120018019807A002809D075
:103330002001059080190490807A012804D0022889
:1033400016D026E065B224E00798002807D0FCF7E5
:103350001BFF05997158884201D123483FE004982A
:103360000399C07A884214D361B20191039010E0AE
:103370000798002805D0FCF707FF05997158884287
:10338000EBD004980299C07A884202D361B20091CE
:103390000290641CE4B2A742C3D80020C043AF42ED
:1033A00002D10899C907BAD008998907B7D4AF42A2
:1033B00001D9ECB206E000998F4202D801998F4200
:1033C000ADD9CCB227010020BD19A87207980028FA
:1033D00002D0FCF7D9FEF05100210348E9720470D5
:1033E00060B29CE73C4600200801002070B504460E
:1033F0000E46E5B202210120FEF7BEFE204670BD5A
:1034000000BA704740BA704710B50A46032100F071
:10341000FBF810BDF3B545680446687829780002CA
:1034200089B0084301F061F90005000F80004142B6
:1034300007900091204601F076FA002824D12089D7
:10344000042821D366683078032802D00828F5D1F3
:103450001BE0707C327C0002104331460831377A21
:10346000000A0D4601900422103103A8FCF752FE19
:103470003807800E28188178C078090201437378D4
:10348000019A0398FEF75AF8B6E028461030012654
:103490000490FCF779FE07460F20000701F023F99E
:1034A00007400720400701F01EF9874200D100269F
:1034B0000A99049800F03EF9002802D0FEF718FAA5
:1034C0009AE0FEF715FA00287ED0002E7CD02089E5
:1034D000082879D3204600F0D2F8002874D12221A0
:1034E000204601F020FA00281DD02046079901F05F
:1034F0001AFA002868D121890022022001F0F8F888
:10350000060079D0214601F0A2F9002874D175682F
:103510003046009901F007FA00286DD1204601F0ED
:10352000E0F9344606E02121C943204601F0FBF9C9
:10353000002861D128460C30666806900490FCF79C
:1035400023FE07460390284610300090FCF71CFE2F
:103550000499FCF723FE38460099FCF71FFE00276C
:1035600037702848FFF74EFF0146F078B278000226
:1035700010430122D2028142104607D8FFF742FFD2
:10358000F178B27809021143401C05E0FFF73AFFD9
:10359000F178B278090211434018B070000AF07057
:1035A000687A297A0002084301F09FF80121C0B22D
:1035B000C9034018FFF726FF2872000A6872380A0C
:1035C000AF72E872142100E016E0284600F051F8CE
:1035D000A872000AE8722046079901F0A4F90028B1
:1035E0000AD10A98012101910290802300220097BC
:1035F0002046069900F0A8FA204601F072F90BB0B7
:10360000F0BD0000FFF70000F7B50E4682B00022C3
:103610002421012001F06CF8050028D002986C6884
:103620004768267004986070002626716671A6713E
:10363000E67102981C22416868680830FCF76AFD50
:10364000A670300AE0706989204600F012F8A07078
:10365000000AE07001203A46019080230C320021DC
:103660000096284600F056FA284601F03AF905B0CF
:10367000F0BD10B500F042FCC04380B210BDF8B5FB
:1036800000252E46044601270FE06189606800F09E
:1036900035FC4019010C80B20D18A07AC00703D088
:1036A000B81BC6B268BA85B22468002CEDD1002ED2
:1036B00001D068BA85B2E84380B2F8BDFFB50025F5
:1036C00081B02E46044601270FE06189606800F052
:1036D00015FC4019010C80B20D18A07AC00703D068
:1036E000B81BC6B268BA85B22468002CEDD1002E92
:1036F00001D068BA85B20298FCF746FD81B249193B
:10370000000C44180398FCF73FFD81B20919000C26
:1037100044180498FFF776FE04190A98FFF772FE22
:103720000019010C80B20818010C0818C04380B2BF
:1037300005B0F0BD10B50C46FCF726FD0246411C55
:1037400013D0002A11D03121095D89070BD561689A
:10375000914208D0A0681346034001408B4202D139
:103760001043401C01D0002010BD012010BDF7B552
:103770008EB004460F981426008D00906068079064
:10378000C179827908020025104300F0AEFFC10420
:10379000C90C05910121490308400A902089143879
:1037A00087B200981438C117490F089008184003D1
:1037B000000C09907FE00898874201DC012000E0BE
:1037C000002005990A9AC904C90C11430B910028DD
:1037D0001AD0384680B2069000221421022000F050
:1037E00087FF0490002817D0406814220799FCF73F
:1037F00091FC049840680C90606880196060608952
:10380000801B6081069E26E008460121490308438B
:103810000B900998C000DDE70020C04311B0F0BD57
:103820006589B54200D93546002D13D0022200210A
:10383000032000F05DFF010042D0606848600D8108
:103840004D81049800F0DEFF701B0604360C04D096
:103850002468E5E72468002EE2D12E460B98FFF796
:10386000D1FD0C998871000AC8710698143080B295
:10387000FFF7C8FD01460C988170090AC1700C98C9
:1038800000218172C17214210C98FFF7F2FE0C998D
:103890008872000AC8720F98109A43690499984771
:1038A000049801F01EF806980999381A87B205980D
:1038B000401880B20590002F00D07CE70020ADE7D3
:1038C000049801F00EF8A7E7F3B585B00120039046
:1038D00005980E464568687829780002084300F08C
:1038E00004FF000B042803D0059800F0FAFF06E15E
:1038F000687829780002084300F0F7FE0005000F01
:1039000080000090E878A9780002084300F0EDFEFE
:1039100004460598418900988142E5D305980089BD
:10392000A042E1D328460099FFF7A3FE0028DBD18F
:103930002146059801F02AF8012002900F20344614
:10394000000700F0D0FE0720400700F0CCFE204624
:1039500000F056FE002820D0201D1ED06768002FE2
:103960001BD0284610300190FCF70EFCB84223D043
:1039700021460198FFF7DEFE00281DD10198FCF7D3
:1039800003FC07460F20000700F0ADFE07400720AC
:10399000400700F0A8FE87420ED00298002804D00D
:1039A000002002905748046800E02468B44200D127
:1039B0002468002CCBD101E0002C2DD1687A297A23
:1039C0000002084300F091FEC0B211280ED1009809
:1039D0002918C87889780002084300F086FE442838
:1039E00004D1002034460390002E15D1687A297A3C
:1039F0000002084300F079FEC0B211280CD10098F3
:103A00002918C87889780002084300F06EFE3E4904
:103A1000884201D134461FE0039800281CD0284674
:103A20000C300746FCF7B0FB002815D0314638466D
:103A3000FFF780FE002800D056E73846FCF7A4FBCD
:103A400007460F20000700F04EFE07400720400702
:103A500000F049FE8742EFD0002CEDD02B48FFF755
:103A6000D1FCE979AA79090211430842E4D1284C32
:103A700031466660A560059801F008F800283BD142
:103A8000687A297A0002084300F02FFEC0B20128AC
:103A900015D006280ED01128314607D02846103000
:103AA0000646FFF747FE00280ED022E0059803F0F7
:103AB000BBFD21E03146059801F098FC1CE0314641
:103AC0000598FFF7A7FC17E03046FCF75DFB0646BC
:103AD0000F20000700F007FE06400720400700F017
:103AE00002FE864205D00598022145600598FFF741
:103AF0008BFC059800F0F5FE00206060A0600020BF
:103B000007B0F0BDB00000206C070000FF3F0000D0
:103B10007C010020FFB583B01F46164610460C9D61
:103B20000D9C00F097F800280AD002903B463246E0
:103B3000009501940499039800F006F807B0F0BDD1
:103B40000320C043FAE70000FFB581B006460398A2
:103B50000C9D1F46002865D0142001460090304679
:103B600000F0E1FE002803D00120C04305B0F0BD05
:103B70007468607A217A0002084300F0B6FDC0B292
:103B800039020843FFF73EFC2072010A617200F01F
:103B9000ACFD000A0B9900020843FFF733FC2072CA
:103BA000000A60720398FCF7EFFA21461031FCF727
:103BB000F5FA05200A990002084301218903084308
:103BC00080B2FFF71FFC2070000A60703089FFF799
:103BD00019FCA070000AE0700020A0711C4FE07179
:103BE0003888FFF70FFC2071000A60713888401C8C
:103BF00038800298002803D0FCF7C6FA002802D1CA
:103C0000281D00D0686821460C31FCF7C7FA002057
:103C1000A072E07220460099FFF72BFDA072000A07
:103C2000E07202E0706810300390288D002808D000
:103C30003189814205D929463046039AFFF797FD1D
:103C400094E76B6931462846039A98478EE700004F
:103C50007C01002070B505461148046811E020463B
:103C600000F0CEFC00280BD02846FCF78DFA014668
:103C7000A068626801400240914201D1204670BDB7
:103C80002468002CEBD1074C2068002805D000F0F8
:103C9000B7FC002801D0206870BD002070BD000076
:103CA000B0000020B4000020F8B5044625460620E8
:103CB00020352249A8720A6A00202618135C203693
:103CC000401CC0B2F3720628F7D31E4F1C480F6386
:103CD00088633846203848631B48C8631B49002660
:103CE0000E601B4A3046127804E083005B185E6069
:103CF000401CC0B29042F8D3002004E083005B185F
:103D0000DF60401CC0B29042F8D31048C421C438D0
:103D1000FCF719FA0D480121443801640D49218549
:103D200033216974806B0C49098848430449401861
:103D30000A4988810A480660F8BD00001001002089
:103D4000D0150020D046002090150020C84D00203E
:103D50008B000020DC0500003C4600200090004065
:103D600098000020F8B50027304880213D460160CA
:103D70002F4C606B621A80008018C06B636B80B23E
:103D80009B009B189B6F636B9B00D258D2B2009232
:103D9000264A803A1160009A022A19D1002817D0C9
:103DA000401C81B20322104600F0A2FC05003AD06C
:103DB000791E00F0B8FD2E467F1CFFB2052F01D9F9
:103DC0000020F8BD7068FDF7CBF83668002EF3D1FF
:103DD000164880210160E26B00231648002A02D0B9
:103DE000009A022A0FD00278134E521CD2B20270EF
:103DF0003678B2420ED30370E06B401EE063E06B96
:103E0000002805D006E00370E06B401EE06301E08F
:103E1000A06B6063054880380160002D03D001214C
:103E2000284600F080FD2846F8BD000080E100E053
:103E3000844D0020100100208A000020F3B50025E9
:103E400081B02C46691E029800F06DFD20481E4F7F
:103E5000016A1E4A1F4804E0641C944206D80129E6
:103E600004D00368002BF7D1029C0EE00021016012
:103E70000B20C043FEBD66896168A81985B2324631
:103E80003846FCF747F92468BF19002CF3D1124AD1
:103E90000D48136801219B009B1859601168491C4B
:103EA000116011680D4B1B78994201D300211160FC
:103EB0003C2D00D23C252946FDF782F801210298CD
:103EC00000F031FD0020FEBDD0460020FFFF0000C5
:103ED000F845002098000020C84D00208B000020ED
:103EE00010B500F09BF800F091F9034880680028B5
:103EF00000D0804710BD0000E84D002010B5002222
:103F000007E00378891E1C02437889B22343D21844
:103F1000801C0129F5D8002902D00078000212186F
:103F2000100C91B24018010C02D0010C80B208189C
:103F300080B2FFF767FA10BD30B50446002505E0F2
:103F40007D20C00000F005F8681C85B2A542F7DBB3
:103F500030BD10B500210AE0022201E000BF00BF21
:103F60001346541EA2B2002BF8D14B1C99B28142C9
:103F7000F2DB10BD10210120FDF704FC0320FFF748
:103F8000DBFF0220FDF700FD002013498870C87098
:103F900003F018FA00F0AAF903F0FAF901200E492B
:103FA0000870032048700D480D490860FF2008750F
:103FB000084600F0E1F90B4B0B4A0C49084800F0A9
:103FC000E5F907E0FCF740FBFCF772FB002801D0A5
:103FD000FCF74CFAF6E700008C0100200A1A0000FA
:103FE00018060020316F0000D56E0000816E0000C1
:103FF00010B500280FD008494A6890420BD38A6850
:10400000904208D2002208380271CA68904200D259
:10401000C86000F0F9FC10BD9C00002030B51049CC
:10402000104A0868104CC01C800880004860138942
:104030000125DB1C23400380002343800371936828
:10404000DB1C9B089B001B188B601D711589ED1CE8
:1040500025401D801289D21C22405A80C86030BD84
:104060009C0000203C460020FCFF0000F0B500282A
:104070004AD02849C31C0B400C2B00D20C23264CE1
:10408000A068C01C8508AD009D4241D32348C66886
:104090004268B11A89B2EC1A38E050180579002D3F
:1040A00033D105886D1A083D9D422ED304881F46E2
:1040B000641A14370125083CBC4215D3CB180833C9
:1040C0009CB2131900271F7107881F805980048034
:1040D00005711988104B9B68DB1C9B089B0099425B
:1040E00003D0931CCC5200E005710C49B0420AD1B8
:1040F0008C68CB681D79002D05D0A34203D01B88A6
:104100009B18CB60F6E70830F0BD515A8C42C4D8FA
:104110000020F0BDFCFF00003C4600209C00002079
:10412000F8B5324AC91C11400C2900D20C21304A82
:104130009268D21C920892008A4210D32D4B5C6880
:10414000A0420DD39A6890420AD20246083A131B45
:1041500015889BB2EE1A083EB6B2B14201D90020D2
:10416000F8BDB142FCD02D19AC462F79214DED6838
:10417000AE46204D6D68AD1C002F1BD00F46143786
:10418000B742EDD8591808318EB21A4FA1197145AE
:1041900000D2F96000240C7114880C804B801680CA
:1041A000134A09889268D21C920892009142D7D093
:1041B0004E53F8BD591866460831368889B20096C4
:1041C000E64502D10B4E6718F76064180026267189
:1041D000009E26806380064B11809B682288DB1C32
:1041E0009B089B009A42E4D05153F8BDFCFF0000AD
:1041F0003C4600209C000020002904D08200024898
:1042000083580B60815070475C500020F0B500204F
:10421000401C80B20828FBD30E490F4A8868C01C96
:104220008408A4000020002386009351450007E085
:104230009759276094510F687F5B3C195B1C9BB2B8
:104240004F687F5B9F42F3D8401C80B20828EAD3B6
:10425000F0BD0000540100205C500020082801D36C
:10426000002070470349820088580028F9D003686D
:104270008B5070475C50002010B50E480078012824
:1042800013D10D480068401C0B49086008460068BF
:104290000A4988420CDD002007490860054908707A
:1042A0000748007800F00EF802E00020024908609C
:1042B00010BD00007000002074000020B80B00004A
:1042C0006000002010B50446FF2C07D0FF200649EF
:1042D000087000212046FCF709FA10BDFF200249B2
:1042E000087000BFF9E700006000002010B500244E
:1042F0000F48FCF7ADFF0E4B0E4A0F490F48FCF775
:1043000073F90446002C08D021460DA0FEF728F9C9
:104310000A20FFF711FEFDF717FB00210720FDF72C
:10432000F5F90720012181400B4A116000BF10BD43
:104330004800002056000020520000204E000020BF
:104340006D53746F7049664572726F723A202530F2
:1043500032580D0A0000000000E100E00EB50548EB
:10436000009040100190052002906846FCF73CF850
:104370000EBD0000204E000070B50446257DFF20D4
:10438000207528460021FCF7B1F970BDFFB58FB04C
:1043900004460E4600273C216846FBF7D4FE206801
:1043A0000A90032007902046153002904320C00059
:1043B000039000BF04E000207900194A50547F1C8C
:1043C000042FF8DB694620461430FCF7B9F905469E
:1043D000002D02D0284613B0F0BD2079012803D16A
:1043E000207D0121FCF792FB002E00D0A6601198E1
:1043F000002801D01198E0601298002801D012988E
:104400002061207DFCF766FA0546002D05D029467F
:1044100004A0FEF7A5F82846DDE70020DBE7000052
:104420007800002043483537784E45545F536F631A
:104430006B65744C697374656E204552523A202541
:104440003032580D0A000000F8B505460C461646F5
:1044500004203040002824D060003C49085C01283A
:104460001FD16100394A5054600011464018447011
:1044700000212046FCF71EFB00900098002810D079
:104480006A46334829182046FCF74CFA2869002868
:1044900007D061002D4A88182B692D496918009AA8
:1044A000984708203040002822D03C20604329490A
:1044B0004018806A296888421AD14320C0006043AE
:1044C0002A46153281184322D2002046FCF7D2F842
:1044D000012061001D4A505460001146401844708C
:1044E000A868002804D062000B46D018A968884745
:1044F00010203040002814D060001449085C0128C6
:104500000FD100206100114A50546000114640183C
:104510004470E868002804D062000B46D018E968AF
:1045200088474020304000280FD000206100074A13
:1045300050546000114640184470E868002804D0C8
:1045400062000B46D018E9688847F8BD7800002063
:1045500075080000A0140020F8B504460E46174662
:104560000097009D002C13D02078012810D10DE079
:10457000009560786A463146FCF7A8FA00982D1A33
:1045800000983618002D00D000E000E0F0E705E0CC
:10459000617803A0FDF7E4FF0520F8BD0020FCE7EB
:1045A000636C69656E74206E6F20636F6E6E6563F9
:1045B000742025640D0A0000F8B504460025089F04
:1045C00006986560A56026462036E560757425620C
:1045D0000A4DE06128783075401C2870204627611C
:1045E00000F013F8079920468847002801D00020E2
:1045F000F8BD6868206020466C60F8BDAC00002003
:104600002030407CC007C00F704770B51D4616466D
:10461000044600F01BF83146204600F059F82946C0
:10462000204600F007F870BD01498860704700001F
:10463000AC00002010B50446002904D00846FBF762
:10464000A3FDE06010BD0020FBE70000F8B50546C3
:104650000F4600260846FBF797FD6968884228D078
:10466000194800680FE001686A6891420AD1012187
:10467000C46800F0C7FA3146761C2046F6B26429B9
:1046800001D902E0C0680028EDD1104804680EE0AE
:10469000002C0BD02068002808D06968884205D11A
:1046A000002F0DD03846FBF76FFD2060E468002C2A
:1046B000EED1002F06D03846FBF766FD6860F8BDE6
:1046C0000020F2E70020F9E7CC000020C80000201D
:1046D00010B50446002904D00846FBF755FDA0603C
:1046E00010BD0020FBE700BA704740BA70470000D9
:1046F000F8B5002516460F46002806D0012805D03B
:10470000022804D0032878D102E0142514350E3590
:10471000002E49D0012E5FD0022E5DD0032E6CD129
:104720000720FFF79BFD040067D026730020206060
:1047300060191330B0436060314827814068ED1C38
:104740003930A908B0438900401AB84200D9384628
:1047500080B201216081E1813D1A00941DE00720B3
:10476000FFF77CFD00281BD0067300214173016018
:104770000099AAB208602249028149683931890842
:1047800089008A4200D2294689B20246418110320C
:1047900042600122C2816D1A0090002DDFDC26E00C
:1047A000204600F09EF828E0284613308108F81CC7
:1047B000800889008000081880B2FFF757FC0400C9
:1047C0001BD06019133080088000606027816781EA
:1047D0000020206020730AE00620FFF73FFD040060
:1047E0000BD0002060602781678120602673012044
:1047F000E081002060732046F8BD0020F8BD000075
:104800003C46002010B500280FD000290DD004E050
:1048100003890C891B19038110460268002AF7D10D
:1048200002890B89D2180281016010BD10B50C46B7
:10483000FFF7E8FF204600F0D2F810BD002102E0AB
:10484000491C0068C9B20028FAD108467047F8B57B
:1048500000270C4605463E46002805D0002C03D014
:1048600028892189884202D20920C043F8BD68897D
:10487000C11B6089801B814201DB80B200E088B2ED
:1048800000906068009A81196868C019FBF742FCC3
:104890000098381887B20098301886B26889B842F4
:1048A00001D12D6800276089B04201D82468002614
:1048B000002C06D060892189884202D12068002816
:1048C00008D1002D09D068892989884205D1286836
:1048D000002802D00820C043F8BD002CC7D100201A
:1048E000F8BD70B5002815D00024C189491E0904FF
:1048F000090CC1810DD1017B056803290BD0012969
:104900000CD002290AD0FFF773FB641CE4B2280024
:10491000EBD1204670BD0146072001E0014606208C
:10492000FFF76AFCF1E710B5002909D0002807D08D
:10493000002907DA4A4293B242899A4224D302E01C
:10494000002010BD8BB2027B4468002A06D0032AE7
:1049500004D0022A0AD0012A08D015E0621A0346C0
:10496000103342609A4208D244600DE000290BDA0D
:1049700042899A4208D3621A42604289521842819F
:10498000028951180181DBE7012010BD70B5028951
:104990008A4223D98A1A0D46044605E0281A85B2B0
:1049A00020898018208124686089A842F6D3207B62
:1049B00000280AD16089A84207D0A088001B4019AE
:1049C00081B22046FFF7ACFB044665812581206853
:1049D000002801D0FFF785FF0020206070BD00286F
:1049E00002D0C189491CC18170470000C107044839
:1049F00003D0FF211F31416270470249FBE70000ED
:104A0000009000401E01040030B5134902884B6835
:104A1000D2189C1C90420ED01579002D0BD18D68B8
:104A2000AA4208D0CD68954200D1C860158805809B
:104A30001288C51A15534288D21882420BD01579B4
:104A4000002D08D1CD68854200D1CA60018811804F
:104A50000088D11A015330BD9C00002010B50446D7
:104A6000002905D00846FBF78FFB2060002010BD11
:104A70000020FAE710B50446002905D00846FBF7E8
:104A800083FB6060002010BD0020FAE7F3B583B01F
:104A90000020009003984668707A317A000208433B
:104AA000FFF723FEC0B201901448002504681FE000
:104AB000217C0198814216D16769002F13D03346BB
:104AC0000C33A0692146039AB84700280BD0002078
:104AD000039001200090002D05D0E068E8600748B1
:104AE0000168E160046025460098E468002801D16F
:104AF000002CDDD1009805B0F0BD00005001002071
:104B000070B505460020FFF7A9FB040009D01C2161
:104B1000FBF719FB25748020E07203480168E1600F
:104B20000460204670BD0000500100208261416198
:104B30007047000010B50B490A6882420AD1D2685A
:104B40000A6009E0D168002903D0814201D1C1681F
:104B5000D1600A46002AF5D101460020FFF74CFB40
:104B600010BD00005001002010B5021D00F001F83A
:104B700010BDF7B50E46044684B014213046FFF749
:104B8000D2FE0027FF4300280AD000221146012050
:104B9000FFF7AEFD05000BD03146FFF747FE0AE0F8
:104BA00013213546C9433046FFF7BDFE002802D029
:104BB000384607B0F0BD0698FFF74CF8002817D02C
:104BC000002C1DD0216800291AD02146227CA37A0E
:104BD000019202900093E37A2846069AFEF7B4FF0A
:104BE0000446B54202D02846FFF77BFE2046E0E7A8
:104BF000B54202D02846FFF774FE0320C043D8E731
:104C0000011DE3E7F3B50446007C87B00A283ED0D7
:104C1000A06D0390606A0290002C42D0206804903E
:104C2000201D00D06068059094200559278B268CA4
:104C3000606900902046FCF72BFC21461A4801F0E1
:104C400075F9A06F002801D002F023F8606F0028EA
:104C500001D002F01EF8E06F002801D002F019F830
:104C600021460220FFF7C8FA002D03D00421C943D2
:104C70000098A8470898002807D005AB04AA009719
:104C800001960299039801F071FF09B0F0BD064842
:104C90002146001D01F04AF921460220FFF7ACFA37
:104CA000F3E700200490BDE7CC000020C16170470D
:104CB0000420C04370470000F8B507460220FFF704
:104CC000CDFA3E4C3E4D060040D1287C400701D431
:104CD0000020F8BD00210846A668A26906E0136B13
:104CE000F31A8B4201D319461046D268002AF6D136
:104CF000002802D00121FFF785FF0220FFF7AEFA5E
:104D0000060023D17F1E7F20844600206269A168AF
:104D1000FEB2864600910DE0517CB14209D8614552
:104D200007D8176B009BDB1B734502D39E461046CA
:104D30008C46D268002AEFD1002802D00121FFF76B
:104D400061FF0220FFF78AFA060035D0AC21FBF79D
:104D5000FAF940207074C1013018C1850023038620
:104D6000A98831857185B3728021F1724322696807
:104D7000D200914200D911463187062101818380FA
:104D8000C180C91FF1860121418200F039FE7066A1
:104D9000B065F064B066A068306334208355304657
:104DA00008498030816008490A6882614A68C261A6
:104DB00089680162A92083553046F8BDB8000020FB
:104DC0003C4600200B6A00005046002041617047BD
:104DD000F7B50746007C82B01446002803D00C20AB
:104DE000C04305B0F0BD002C02D100F0DBFD04464D
:104DF0003548056811E0288BA0420DD1002D4BD01D
:104E00002E68002E48D00398002845D0FBF7BCF947
:104E1000002841D0B0423FD0ED68002DEBD12A4DA3
:104E2000103D6E6913E0308BA0420FD1002E33D0BD
:104E30003068009000282FD0039800282CD0FBF772
:104E4000A3F9002828D00099884225D0F668002EC2
:104E5000E9D1EE6813E0308BA0420FD1002E1BD0B9
:104E600030680090002817D00398002814D0FBF772
:104E70008BF9002810D0009988420DD0F668002EDA
:104E8000E9D1AE690CE0308BA04208D10398FBF762
:104E90007BF93168884202D10A20C043A1E7F66855
:104EA000002EF0D10398002808D0FBF76DF90028F8
:104EB00004D0042238460399FBF72CF93C83E868B8
:104EC000F8600020EF608CE7C800002070B5054650
:104ED000007C05260300FDF753FB08051D2B353527
:104EE0004A4A3D4A2846FCF7D3FA24480024C168C0
:104EF000A94201D1C96807E0C161002905D0C9688C
:104F0000A942F9D1E968C069C1600020E86029467A
:104F100002200AE000242846FCF7BAFA174829467E
:104F2000103001F003F829460320FFF765F923E06C
:104F300000242846FCF7ACFA10482946143000F04B
:104F4000F5FFE4E70121284601F054FF040009D1F0
:104F50002E7407E00121284601F04CFF040001D126
:104F600009202874002D07D0002C02D004E0002472
:104F700002E0284600F0A6FD204670BDB8000020E3
:104F800010B504460846FEF765FE002808D0008DDF
:104F9000002805D0283880B2844200D2204604463A
:104FA000204610BDFFB58FB0119919980143129892
:104FB00080070143EE4877D01199002902D110995A
:104FC000002971D10F98119940300690C28D0F9829
:104FD00020300D908A4205D28178802001430D98BF
:104FE000817050E11098029019980991C00701D082
:104FF000042100E000211998800701D50C2000E071
:105000000020081807900F98876E0698008E05906C
:10501000D84841680120C003FBF752F801460598C3
:10502000814202D9D449884201D90D98D4E700269B
:1050300003960F98018F0798081A0999884200DB98
:10504000084680B200900420FFF708F904006ED0F3
:10505000002525606560002E27D00398046018980D
:105060000394C00723D0079900980022401881B20A
:105070001046FFF73DFB60600028E8D0FFF7DEFB3D
:1050800001460598081880B205901098002807D0AE
:105090006068009A4168079808180299FBF73AF887
:1050A00060684068A06026E0EFE00646D7E700228F
:1050B00010460799FFF71CFB60600028C7D0FFF778
:1050C000BDFB01460598081880B205900998002894
:1050D00011D0012203200099FFF70AFB010021D023
:1050E0000598401C80B20590029848600298A06024
:1050F0006068FFF787FB9F4841680120C003FAF70B
:10510000DFFF01460598814211D301469A4881424A
:105110000DD80098A08114216068FFF704FC0028D6
:1051200005D105E06068FFF7DCFB002060609FE0D0
:105130006068406820610F98008BFEF763F9216971
:105140000870000A48700F98008CFEF75BF921691F
:105150008870000AC8703846FEF752F92169091DA7
:10516000FBF71CF82069290A8574C17482483C3811
:10517000FEF748F922690546517B127B090211436B
:105180000D401298FEF73EF905432069290A057380
:1051900041731998A0732169487B097B0002084379
:1051A000FFF7A3FA0799052289088006090312036D
:1051B000800E89180843FEF725F921690873000A53
:1051C0004873009909987F18401A80B20990029894
:1051D000401802900998002800D02AE70F98456FE0
:1051E000002D72D000E0054628680028FBD1002D74
:1051F0006BD02969487B097B00020843FFF775FAE9
:10520000800700D00120A989C84277D02969487B4E
:10521000097B00020843FFF768FA80076ED11298F5
:10522000800702D01298012868D1A889B189411855
:105230000F98008F814261D8A87BB17B88425DD1F5
:105240002869001DFAF7A0FFFFF74DFAA989471852
:105250003069001DFAF798FFFFF745FA87424DD1F4
:105260000799706814314942FFF75DFB00280ED0A2
:105270000D988178802001430D98002E817002D016
:10528000304601F006FD0020C04313B0F0BD706849
:105290004189002909D101687160002101600599E7
:1052A000491E89B20591FFF71CFB1298C0070DD06B
:1052B0000120FEF7A7F829694A7B0B7B12021A43EB
:1052C00010430873000A48730AE014E071686868C4
:1052D000FFF798FAA889B1894018A881306828603A
:1052E000B44202D1A8892C46009031460420FEF732
:1052F00083FF04E002E00F98466700E02E601298FA
:10530000800703D01198401C80B211901298C007FA
:1053100005D00D982021807808430D9988700F984A
:10532000816E119809180F9881660698C18D1198A1
:10533000081A0699002CC88506990598088614D085
:105340000098002811D0206900280ED018988007F6
:105350000BD40820FEF756F821694A7B0B7B12021A
:105360001A4310430873000A487300208DE70000B9
:10537000F6FFFFFF3C460020FCFF0000803041614B
:1053800070470000F8B518480026446928E0254613
:1053900080352A68002A0FD0AF68002F04D0002380
:1053A00021466069B84704E000232146184601F011
:1053B0002CFB002800D12860761CF6B2642E11D890
:1053C00025462035A878C10709D002210843A870D6
:1053D000204600F077FBA87880088000A870E46879
:1053E000002CD4D1F8BD0000B8000020F0B507466D
:1053F000ED4D87B040680C46A860417802780802FD
:105400001043FFF772F90005000F7968800040181B
:105410006860A9684878097800020843FFF765F9D1
:105420000005000F800041423846FFF77CFA002853
:105430007ED1388914287BD3A86821461030FEF726
:1054400079F90028F4D1A8681030FAF79DFE0446D7
:105450000F200007FFF747F9044007204007FFF738
:1054600042F9844264D038890090AA680623114624
:1054700038460C311032FEF721F90028D8D168687F
:10548000417B027B08021043FFF72FF9000B8000DD
:1054900041423846FFF747FA0028C9D16968487881
:1054A000097800020843FFF720F901466868017097
:1054B000090A4170C178827808021043FFF715F994
:1054C000014668688170090AC170001DFAF75CFE28
:1054D000FFF709F969680C46091DFAF75FFEE860F5
:1054E00020460830FAF750FEFFF7FDF869680C46D1
:1054F0000831FAF753FE2861E07BA17B00020843E4
:10550000FFF7F3F8014668688173090AC173417BAC
:10551000027B08021043FFF7E8F88006800E28702F
:105520003989800700D0012008186880002600E033
:10553000B8E09E4804689C480194806801460C319C
:10554000103004909848069145683EE068782A78C3
:10555000218C00021043814235D1E878AA78218B52
:105560000002104381422ED10698FAF70DFE6168C1
:10557000884228D10498FAF707FE2168884222D190
:10558000002E05D0E068F06088480199E160046071
:10559000002C1CD08649002008603A898A817A68EC
:1055A0004F608A60804A0D61506126465070803697
:1055B0003268002A7BD0B568002D7AD000232146BE
:1055C0006069A8477AE02646E468002CBED1794895
:1055D00004681EE068782A78218C0002104381421A
:1055E00016D1E878AA78218B0002104381420FD1AE
:1055F0000698FAF7C9FD6168884209D10498FAF75C
:10560000C3FD2168884203D1204601F0E1FD49E055
:10561000E468002CDED1684800260468009421E08C
:10562000002C0AD020680690002806D00498FAF7CB
:10563000ABFD01460698814212D1E878AA78218B09
:105640000002104381420BD1002E05D0E068F060CB
:1056500059480099E1600460204600F0DDF821E03F
:105660002646E468002CDBD1687B297B00024E4C87
:105670000843FFF73AF8400714D4616848780A787D
:1056800000021043CA788B781102194300910190EF
:10569000A3686188E0681A46411810320C3320690B
:1056A00001F064FA3846FFF71CF907B0F0BD08E0D6
:1056B000FFE700232146184601F0A7F90028F1D1A1
:1056C0003060394D2046AC6100F064FC401D61D073
:1056D000687801071BD505A92046FAF7F7FD0128D0
:1056E00002D1207C022855D02046FBF7D1FE7269FA
:1056F000002A03D00521C9436069904721462B4801
:1057000000F014FC21460220FEF776FD42E0C006C0
:1057100003D52046FBF7BCFEF0E76C20025B002AB5
:1057200005D07368002B02D02146606998476A69EA
:10573000002A17D02878000703D5507B01210843A1
:105740005073B768002F04D0002321466069B84722
:1057500004E000232146184601F057F9002801D043
:105760006869306068782F4680060ED5B668002ECE
:1057700005D000231A4621466069B04705E00023A2
:105780001A462146184601F040F90020B86120462B
:1057900000F098F90026064CAE616068002884D0BD
:1057A000FFF79FF8666080E760010020CC000020D2
:1057B0007C500020D0000020C80000207CB50446AA
:1057C000002214210120FEF793FF050022D0A06DD6
:1057D000401EFDF715FE034600222946204600F034
:1057E000E5FA0646288900900623221D2146284610
:1057F000FDF764FF3074000A7074062100200191E7
:105800000090E37A221D21462846FEF783F92846B8
:10581000FFF767F87CBD0000FEB53C4D06462878D2
:10582000C10616D5696848780A7800021043CA781C
:105830008B7811021943009101906988E868AB6880
:10584000411828691A46401C10320C3301F08EF9B9
:1058500059E0800757D5707CFFF72EFA04004BD033
:10586000AF683846103001D0FAF78EFC2060308BDC
:10587000208338460C3001D0FAF786FC60606A68F5
:105880005078117800020843208403202074E868CF
:10589000411C6162E162D17B937B0A0221461A437B
:1058A00040318A838A82401E206670696061F06997
:1058B000E0613089FF219A31084020811448016855
:1058C000E1600460204600F0C9FA208F211DFFF737
:1058D00057FB2087002001210191024600900146DC
:1058E00012232046FFF75EFB050008D0002120466A
:1058F000FFF788F92846FEBD0020C043FEBD2046C4
:1059000000F0E0F8FEBD0020FEBD000060010020B8
:10591000CC00002070B50446007C002801D0002097
:1059200070BD0320FEF79AFC051EF9D0606968611E
:10593000208B288301202874208902210843288194
:10594000E07AE872A07AA872002C07D0206828605C
:105950000F48C168A14203D1C96809E00020F6E7F9
:10596000C161002905D0C968A142F9D1E168C069C7
:10597000C1600020E06021460220FEF73DFC0548A2
:10598000E861034810300168E9600560284670BD91
:10599000B8000020B14C000010B54020FFF78CF992
:1059A00010BD000030B51548134D44694188491CAD
:1059B00089B24180A94202D90121090341802146CF
:1059C000438803E00A8B9A42F0D0C9680029F9D1D4
:1059D000826903E0118B9942E8D0D268002AF9D19C
:1059E000064910310A6803E0118B9942DED0D26873
:1059F000002AF9D198B230BDFF7F0000B800002026
:105A000002498A684868801848607047B8000020DA
:105A1000F8B50C4601690546487B097B000208433E
:105A2000FEF763FE254FC00727D0204601F031F96D
:105A3000002441E0707B317B00020843FEF755FEF5
:105A4000C00716D01E48FDF7DDFC29690646487BD5
:105A5000097B000208430640FEF747FE8006800EE1
:105A600001210843FDF7CEFC06432869310A06737D
:105A700041732046246801F0FBF8002C1CD02069FB
:105A80000646001DFAF780FB0146A089FA6808184F
:105A9000A9898918081ACDD52069001DFAF774FB69
:105AA000AA89F9685218121A002A05DD401A81B233
:105AB000A9816868FEF76AFF2C60F8BD60010020CC
:105AC000C0FF0000F0B504467D4885B00068A042E4
:105AD00002D1002005B0F0BD20464030039003996C
